{
  "contractName": "RawMatrials",
  "abi": [
    {
      "inputs": [
        {
          "name": "Splr",
          "type": "address"
        },
        {
          "name": "Des",
          "type": "bytes32"
        },
        {
          "name": "FN",
          "type": "bytes32"
        },
        {
          "name": "Loc",
          "type": "bytes32"
        },
        {
          "name": "Quant",
          "type": "uint256"
        },
        {
          "name": "Shpr",
          "type": "address"
        },
        {
          "name": "Rcvr",
          "type": "address"
        }
      ],
      "payable": false,
      "stateMutability": "nonpayable",
      "type": "constructor"
    },
    {
      "anonymous": false,
      "inputs": [
        {
          "indexed": true,
          "name": "BatchID",
          "type": "address"
        },
        {
          "indexed": true,
          "name": "Shipper",
          "type": "address"
        },
        {
          "indexed": true,
          "name": "Manufacturer",
          "type": "address"
        },
        {
          "indexed": false,
          "name": "TransporterType",
          "type": "uint256"
        },
        {
          "indexed": false,
          "name": "Status",
          "type": "uint256"
        }
      ],
      "name": "ShippmentUpdate",
      "type": "event"
    },
    {
      "constant": true,
      "inputs": [],
      "name": "getSupplyRawMatrials",
      "outputs": [
        {
          "name": "Des",
          "type": "bytes32"
        },
        {
          "name": "FN",
          "type": "bytes32"
        },
        {
          "name": "Loc",
          "type": "bytes32"
        },
        {
          "name": "Quant",
          "type": "uint256"
        },
        {
          "name": "Shpr",
          "type": "address"
        },
        {
          "name": "Rcvr",
          "type": "address"
        },
        {
          "name": "Splr",
          "type": "address"
        }
      ],
      "payable": false,
      "stateMutability": "view",
      "type": "function"
    },
    {
      "constant": true,
      "inputs": [],
      "name": "getStatusOfRawMatrials",
      "outputs": [
        {
          "name": "",
          "type": "uint256"
        }
      ],
      "payable": false,
      "stateMutability": "view",
      "type": "function"
    },
    {
      "constant": false,
      "inputs": [
        {
          "name": "shpr",
          "type": "address"
        }
      ],
      "name": "pickPackage",
      "outputs": [],
      "payable": false,
      "stateMutability": "nonpayable",
      "type": "function"
    },
    {
      "constant": false,
      "inputs": [
        {
          "name": "manu",
          "type": "address"
        }
      ],
      "name": "receivedPackage",
      "outputs": [],
      "payable": false,
      "stateMutability": "nonpayable",
      "type": "function"
    }
  ],
  "bytecode": "0x608060405234801561001057600080fd5b5060405160e0806105d9833981018060405260e081101561003057600080fd5b508051602082015160408301516060840151608085015160a086015160c09096015160008054600160a060020a0319908116600160a060020a0398891690811783556001805430908416179055600297909755600395909555600493909355600591909155600680548416968616969096179095556007805483169490951693909317909355600880549093161760a060020a60ff0219169091556104fe9081906100db90396000f3fe60806040526004361061005b577c0100000000000000000000000000000000000000000000000000000000600035046327e4416a811461006057806352b99968146100bc578063638e9a3d146100f157806392e7a41b14610124575b600080fd5b34801561006c57600080fd5b5061007561014b565b604080519788526020880196909652868601949094526060860192909252600160a060020a03908116608086015290811660a08501521660c0830152519081900360e00190f35b3480156100c857600080fd5b506100ef600480360360208110156100df57600080fd5b5035600160a060020a031661017a565b005b3480156100fd57600080fd5b506100ef6004803603602081101561011457600080fd5b5035600160a060020a031661030e565b34801561013057600080fd5b506101396104a1565b60408051918252519081900360200190f35b600254600354600454600554600654600754600854600160a060020a0392831692918216911690919293949596565b600754600160a060020a03828116911614610205576040805160e560020a62461bcd02815260206004820152603260248201527f4f6e6c79204173736f6369617465204d616e7566616374757265722063616e2060448201527f63616c6c20746869732066756e6374696f6e0000000000000000000000000000606482015290519081900360840190fd5b600160085474010000000000000000000000000000000000000000900460ff16600281111561023057fe5b14610285576040805160e560020a62461bcd02815260206004820152601960248201527f50726f64756374206e6f74207069636b65642075702079657400000000000000604482015290519081900360640190fd5b6008805474ff00000000000000000000000000000000000000001916740200000000000000000000000000000000000000001790556007546006546040805160018152600260208201528151600160a060020a03948516949093169230927f7e89c4b1a4e2b51aae84eb1f90e8a34cb792ece5ac5cb63db4830c891220b28d928290030190a450565b600654600160a060020a03828116911614610399576040805160e560020a62461bcd02815260206004820152602d60248201527f4f6e6c79204173736f636961746520536869707065722063616e2063616c6c2060448201527f746869732066756e6374696f6e00000000000000000000000000000000000000606482015290519081900360840190fd5b600060085474010000000000000000000000000000000000000000900460ff1660028111156103c457fe5b14610419576040805160e560020a62461bcd02815260206004820152601c60248201527f5061636b616765206d75737420626520617420537570706c6965722e00000000604482015290519081900360640190fd5b6008805474ff000000000000000000000000000000000000000019167401000000000000000000000000000000000000000017905560075460065460408051600180825260208201528151600160a060020a03948516949093169230927f7e89c4b1a4e2b51aae84eb1f90e8a34cb792ece5ac5cb63db4830c891220b28d928290030190a450565b60085460009074010000000000000000000000000000000000000000900460ff1660028111156104cd57fe5b90509056fea165627a7a72305820963bd1d0f33ecbb33f9d3a565a9b670adde35154fe2679a9ec38d1ac06a614b00029",
  "source": "pragma solidity >=0.4.25 <0.6.0;\n\ncontract SupplyChain {\n\n    address public Owner;\n    \n    constructor () public {\n        Owner = msg.sender;\n    }\n/********************************************** Owner Section *********************************************/\n    modifier onlyOwner() {\n        require(\n            msg.sender == Owner,\n            \"Only owner can call this function.\"\n        );\n        _;\n    }\n\n    enum roles {norole, supplier, transporter, manufacturer, wholesaler, distributer, pharma, revoke }\n    \n    event UserRegister(address indexed EthAddress, bytes32 Name);\n    event UserRoleRevoked(address indexed EthAddress, bytes32 Name, uint Role);\n    event UserRoleRessigne(address indexed EthAddress, bytes32 Name, uint Role);\n    \n    function registerUser(\n        address EthAddress, \n        bytes32 Name, \n        bytes32 Location, \n        uint Role\n        ) public \n        onlyOwner \n        {\n        require(UsersDetails[EthAddress].role == roles.norole, \"User Already registered\");\n        UsersDetails[EthAddress].name = Name;\n        UsersDetails[EthAddress].location = Location;\n        UsersDetails[EthAddress].ethAddress = EthAddress;\n        UsersDetails[EthAddress].role = roles(Role);\n        users.push(EthAddress);\n        emit UserRegister(EthAddress, Name);\n    }\n    function revokeRole(address userAddress) public onlyOwner {\n        require(UsersDetails[userAddress].role != roles.norole, \"User not registered\");\n        emit UserRoleRevoked(userAddress, UsersDetails[userAddress].name,uint(UsersDetails[userAddress].role));\n        UsersDetails[userAddress].role = roles(7);\n    }\n    function reassigneRole(address userAddress, uint Role) public onlyOwner {\n        require(UsersDetails[userAddress].role != roles.norole, \"User not registered\");\n        UsersDetails[userAddress].role = roles(Role);\n        emit UserRoleRessigne(userAddress, UsersDetails[userAddress].name,uint(UsersDetails[userAddress].role));\n    }\n/********************************************** User Section **********************************************/\n    struct UserInfo {\n        bytes32 name;\n        bytes32 location;\n        address ethAddress;\n        roles role;\n    }\n\n    mapping(address => UserInfo) UsersDetails;\n    address[] users;\n\n    function getUserInfo(address User) public view returns(\n        bytes32 name,\n        bytes32 location,\n        address ethAddress,\n        roles role\n        ) {\n        return (\n            UsersDetails[User].name,\n            UsersDetails[User].location,\n            UsersDetails[User].ethAddress,\n            UsersDetails[User].role);\n    }\n\n    function getUsersCount() public view returns(uint count){\n        return users.length;\n    }\n\n    function getUserbyIndex(uint index) public view returns(\n        bytes32 name,\n        bytes32 location,\n        address ethAddress,\n        roles role\n        ) {\n        return getUserInfo(users[index]);    \n    }\n/********************************************** Supplier Section ******************************************/\n    mapping(address => address[]) supplierRawProductInfo;\n    event RawSupplyInit(\n        address indexed ProductID, \n        address indexed Supplier, \n        address Shipper, \n        address indexed Receiver\n    );\n    \n    function createRawPackage(\n        bytes32 Des,\n        bytes32 FN, \n        bytes32 Loc, \n        uint Quant, \n        address Shpr, \n        address Rcvr\n        ) public {\n        require(\n            UsersDetails[msg.sender].role == roles.supplier, \n            \"Only Supplier Can call this function \"\n        );\n        RawMatrials rawData = new RawMatrials(\n            msg.sender,\n            Des,\n            FN,\n            Loc,\n            Quant,\n            Shpr,\n            Rcvr\n            );\n        supplierRawProductInfo[msg.sender].push(address(rawData));\n        emit RawSupplyInit(address(rawData), msg.sender, Shpr, Rcvr);\n    }\n\n    function getCountOfProducts() public view returns (uint count){\n        require(\n            UsersDetails[msg.sender].role == roles.supplier, \n            \"Only Supplier Can call this function \"\n        );\n        return supplierRawProductInfo[msg.sender].length;\n    }\n\n    function getProductIdByIndex(uint index) public view returns(address packageID) {\n        require(\n            UsersDetails[msg.sender].role == roles.supplier, \n            \"Only Supplier Can call this function \"\n        );\n        return supplierRawProductInfo[msg.sender][index];\n    }\n\n/********************************************** Transporter Section ******************************************/\n    \n    function loadpacakage(\n        address pid, \n        uint transportertype,\n        address cid\n        // uint receivertype\n        ) public {\n            require(\n                UsersDetails[msg.sender].role == roles.transporter,\n                \"Only Transporter can call this function\"\n            );\n            require(\n                transportertype > 0,\n                \"Transporter Type must be define\"\n            );\n        if(transportertype == 1) {  // Supplier to Manufacturer\n            RawMatrials(pid).pickPackage(msg.sender);\n        } else if(transportertype == 2) {   // Manufacturer to Wholesaler OR Manufacturer to Distributer\n            Madicine(pid).pickPackage(msg.sender);\n            // require(\n        //         msg.sender == madicineBatchDetails[pid].shipper,\n        //         \"Transporter is other user\"\n        //     );\n        //     require(receivertype != 0,\"Receiver Type must be define\");\n        //     madicineBatchDetails[pid].status = madicineStatus(receivertype);\n            // if(receivertype == 1){\n        //         emit ShippmentUpdate(pid, msg.sender, madicineBatchDetails[pid].wholesaler,2,1);\n        //     } else if(receivertype == 2){\n        //         emit ShippmentUpdate(pid, msg.sender, madicineBatchDetails[pid].manufacturer,2,2);\n        //     }\n        } else if(transportertype == 3) {   // Wholesaler to Distributer\n            MadicineW_D(cid).pickWD(pid,msg.sender);\n        //     require(\n        //         msg.sender == madicineWtoD[pid].shipper,\n        //         \"Transporter is other user\"\n        //     );\n        //     madicineWtoD[pid].status = packageStatus(1);\n        //     emit ShippmentUpdate(pid, msg.sender, madicineWtoD[pid].receiver,1,1);\n        } else if(transportertype == 4) {   // Distrubuter to Pharma\n            MadicineD_P(cid).pickDP(pid,msg.sender);\n        //     require(\n        //         msg.sender == madicineDtoR[pid].shipper,\n        //         \"Transporter is other user\"\n        //     );\n        //     madicineDtoR[pid].status = packageStatus(1);\n        //     madicineBatchDetails[pid].status = madicineStatus(5);\n            // emit ShippmentUpdate(pid, msg.sender, madicineDtoR[pid].receiver,1,1);\n        }\n    }\n\n/********************************************** Manufacturer Section ******************************************/\n    mapping(address => address[]) RawProductAtManufacturer;\n\n    function  rawProductReceiver(\n        address pid\n    ) public {\n        require(\n            UsersDetails[msg.sender].role == roles.manufacturer,\n            \"Only manufacturer can call this function\"\n        );\n\n        RawMatrials(pid).receivedPackage(msg.sender);   \n        RawProductAtManufacturer[msg.sender].push(pid);     \n    }\n\n    function getPackageCount() public view returns(uint count){\n        require(\n            UsersDetails[msg.sender].role == roles.manufacturer,\n            \"Only manufacturer can call this function\"\n        );\n        return RawProductAtManufacturer[msg.sender].length;\n    }\n\n    function getBatchIDByIndex(uint index) public view returns(address BatchID){\n        require(\n            UsersDetails[msg.sender].role == roles.manufacturer,\n            \"Only manufacturer can call this function\"\n        );\n        return RawProductAtManufacturer[msg.sender][index];\n    }\n\n    mapping(address => address[]) ManufacturermadicineBatches;\n    event MadicineNewBatch(\n        address indexed BatchId, \n        address indexed Manufacturer, \n        address shipper, \n        address indexed Receiver\n    );\n\n    function manufacturMadicine(\n        bytes32 Des,\n        bytes32 RM,\n        uint Quant,\n        address Shpr,\n        address Rcvr,\n        uint RcvrType\n    ) public {\n        require(\n            UsersDetails[msg.sender].role == roles.manufacturer,\n            \"Only manufacturer can call this function\"\n        );\n        require(\n            RcvrType != 0,\n            \"Receiver Type must be define\"\n        );\n\n        Madicine m = new Madicine(\n            msg.sender,\n            Des,\n            RM,\n            Quant,\n            Shpr,\n            Rcvr,\n            RcvrType\n        );\n\n        ManufacturermadicineBatches[msg.sender].push(address(m));\n        emit MadicineNewBatch(address(m), msg.sender, Shpr, Rcvr);\n    }\n\n    function getCountOfBatches() public view returns (uint count){\n        require(\n            UsersDetails[msg.sender].role == roles.manufacturer, \n            \"Only Manufacturer Can call this function.\"\n        );\n        return ManufacturermadicineBatches[msg.sender].length;\n    }\n\n    function getBatchIdByIndex(uint index) public view returns(address packageID) {\n        require(\n            UsersDetails[msg.sender].role == roles.manufacturer, \n            \"Only Manufacturer Can call this function.\"\n        );\n        return ManufacturermadicineBatches[msg.sender][index];\n    }\n\n\n/********************************************** Wholesaler Section ******************************************/\n    mapping(address => address[]) madicineBatchAtWholesaler;\n    \n    function madicineReceived(\n        address batchid,\n        address cid\n    ) public {\n        require(\n            UsersDetails[msg.sender].role == roles.wholesaler || UsersDetails[msg.sender].role == roles.distributer,\n            \"Only Wholesaler and Distributer can call this function\"\n        );\n\n        uint rtype = Madicine(batchid).receivedPackage(msg.sender);\n        if(rtype == 1){\n            madicineBatchAtWholesaler[msg.sender].push(batchid);\n        }else if( rtype ==2){\n            madicineBatchAtDistributer[msg.sender].push(batchid);\n            if(Madicine(batchid).getWDP()[0] != address(0)){\n                MadicineW_D(cid).recieveWD(batchid,msg.sender);\n            }\n        }\n    }\n\n    mapping(address => address[]) madicineWtoD;\n    mapping(address => address) MadicineWtoDTxContract;\n\n    function transferMadicineWtoD(\n        address BatchID,\n        address Shipper,\n        address Receiver\n    ) public {\n        require(\n            UsersDetails[msg.sender].role == roles.wholesaler && \n            msg.sender == Madicine(BatchID).getWDP()[0],\n            \"Only Wholesaler or current owner of package can call this function\"\n        );\n        MadicineW_D wd = new MadicineW_D(\n            BatchID,\n            msg.sender,\n            Shipper,\n            Receiver\n        );\n        madicineWtoD[msg.sender].push(address(wd));\n        MadicineWtoDTxContract[BatchID] = address(wd);\n    }\n\n    function getCountOfBatchesWD() public view returns (uint count){\n        require(\n            UsersDetails[msg.sender].role == roles.wholesaler, \n            \"Only Wholesaler Can call this function.\"\n        );\n        return madicineWtoD[msg.sender].length;\n    }\n\n    function getBatchIdByIndexWD(uint index) public view returns(address packageID) {\n        require(\n            UsersDetails[msg.sender].role == roles.wholesaler, \n            \"Only Wholesaler Can call this function.\"\n        );\n        return madicineWtoD[msg.sender][index];\n    }\n\n    function getSubContractWD(address BatchID) public view returns (address SubContract) {\n        // require(\n        //     UsersDetails[msg.sender].role == roles.wholesaler, \n        //     \"Only Wholesaler Can call this function.\"\n        // );\n        return MadicineWtoDTxContract[BatchID];\n    }\n\n/********************************************** Distributer Section ******************************************/\n    mapping(address => address[]) madicineBatchAtDistributer;\n    \n    mapping(address => address[]) madicineDtoP;\n\n    mapping(address => address) MadicineDtoPTxContract;\n\n    function transferMadicineDtoP(\n        address BatchID,\n        address Shipper,\n        address Receiver\n    ) public {\n        require(\n            UsersDetails[msg.sender].role == roles.distributer && \n            msg.sender == Madicine(BatchID).getWDP()[1],\n            \"Only Distributer or current owner of package can call this function\"\n        );\n        MadicineD_P dp = new MadicineD_P(\n            BatchID,\n            msg.sender,\n            Shipper,\n            Receiver\n        );\n        madicineDtoP[msg.sender].push(address(dp));\n        MadicineDtoPTxContract[BatchID] = address(dp);\n    }\n\n    function getCountOfBatchesDP() public view returns (uint count){\n        require(\n            UsersDetails[msg.sender].role == roles.distributer, \n            \"Only Distributer Can call this function.\"\n        );\n        return madicineDtoP[msg.sender].length;\n    }\n\n    function getBatchIdByIndexDP(uint index) public view returns(address packageID) {\n        require(\n            UsersDetails[msg.sender].role == roles.distributer, \n            \"Only Distributer Can call this function.\"\n        );\n        return madicineDtoP[msg.sender][index];\n    }\n\n    function getSubContractDP(address BatchID) public view returns (address SubContract) {\n        // require(\n        //     UsersDetails[msg.sender].role == roles.distributer, \n        //     \"Only Distributer Can call this function.\"\n        // );\n        return MadicineDtoPTxContract[BatchID];\n    }\n\n/********************************************** Pharma Section ******************************************/\n    mapping(address => address[]) madicineBatchAtPharma;\n\n    function madicineRecievedAtPharma(\n        address batchid,\n        address cid\n    ) public {\n        require(\n            UsersDetails[msg.sender].role == roles.pharma, \n            \"Only Pharma Can call this function.\"\n        );\n        MadicineD_P(cid).recieveDP(batchid, msg.sender);\n        madicineBatchAtPharma[msg.sender].push(batchid);\n        sale[batchid] = salestatus(1);\n    }\n\n    enum salestatus{ notfound, atpharma, sold, expire, damaged}\n    mapping(address => salestatus) sale;\n    \n    event madicineStatus(\n        address BatchID,\n        address indexed Pharma,\n        uint status\n    );\n\n    function updateSaleStatus(\n        address BatchID,\n        uint Status\n    ) public {\n        require(\n            UsersDetails[msg.sender].role == roles.pharma && \n            msg.sender == Madicine(BatchID).getWDP()[2],\n            \"Only Pharma or current owner of package can call this function\"\n        );\n        require(sale[BatchID] == salestatus(1), \"madicine Must be at Pharma\");\n        sale[BatchID] = salestatus(Status);\n\n        emit madicineStatus(BatchID, msg.sender, Status);\n    }\n\n    function salesInfo(\n        address BatchID\n    ) public \n    view\n    returns(\n        uint Status\n    ){\n        return uint(sale[BatchID]);\n    }\n\n    function getBatchIdCountP() public view returns(uint count){\n        require(\n            UsersDetails[msg.sender].role == roles.pharma,\n            \"Only Wholesaler or current owner of package can call this function\"\n        );\n        return  madicineBatchAtPharma[msg.sender].length;\n    }\n\n    function getBatchIdByIndexP(uint index) public view returns(address BatchID){\n        require(\n            UsersDetails[msg.sender].role == roles.pharma,\n            \"Only Wholesaler or current owner of package can call this function\"\n        );\n        return madicineBatchAtPharma[msg.sender][index];\n    }\n}\n\n/********************************************** Other Contract ******************************************/\n/********************************************** RawMatrials ******************************************/\ncontract RawMatrials {\n    address Owner;\n\n    enum packageStatus { atcreator, picked, delivered}\n    event ShippmentUpdate(\n        address indexed BatchID, \n        address indexed Shipper, \n        address indexed Manufacturer, \n        uint TransporterType, \n        uint Status\n    );\n    address productid;\n    bytes32 description;\n    bytes32 farmer_name;\n    bytes32 location;\n    uint quantity;\n    address shipper;\n    address manufacturer;\n    address supplier;\n    packageStatus status;\n    bytes32 packageReceiverDescription;\n        \n    constructor (\n        address Splr,\n        bytes32 Des, \n        bytes32 FN, \n        bytes32 Loc, \n        uint Quant, \n        address Shpr, \n        address Rcvr\n    ) public {\n        Owner = Splr;\n        productid = address(this);\n        description = Des;\n        farmer_name = FN;\n        location = Loc;\n        quantity = Quant;\n        shipper = Shpr;\n        manufacturer = Rcvr;\n        supplier = Splr;\n        status = packageStatus(0);\n    }\n\n    function getSupplyRawMatrials () public view returns(\n        bytes32 Des,\n        bytes32 FN,\n        bytes32 Loc,\n        uint Quant,\n        address Shpr,\n        address Rcvr,\n        address Splr\n    ) {\n        return(\n            description,\n            farmer_name,\n            location,\n            quantity,\n            shipper,\n            manufacturer,\n            supplier\n        );\n    }\n\n    function getStatusOfRawMatrials() public view returns(\n        uint\n    ) {\n        return uint(status);\n    }\n\n    function pickPackage(\n        address shpr\n    ) public {\n        require(\n            shpr == shipper,\n            \"Only Associate Shipper can call this function\"\n        );\n        require(\n            status == packageStatus(0),\n            \"Package must be at Supplier.\"\n        );\n        status = packageStatus(1);\n        emit ShippmentUpdate(address(this),shipper,manufacturer,1,1);\n    }\n\n    function receivedPackage(\n        address manu\n    ) public {\n        \n        require(\n            manu == manufacturer,\n            \"Only Associate Manufacturer can call this function\"\n        );\n\n        require(\n            status == packageStatus(1),\n            \"Product not picked up yet\"\n        );\n        status = packageStatus(2);\n        emit ShippmentUpdate(address(this),shipper,manufacturer,1,2);\n    }\n}\n\n/********************************************** Madicine ******************************************/\ncontract Madicine {\n    \n    address Owner;\n\n    enum madicineStatus { atcreator, picked4W, picked4D, deliveredatW, deliveredatD, picked4P, deliveredatP}\n\n    // address batchid;\n    bytes32 description;\n    bytes32 rawmatriales;\n    uint quantity;\n    address shipper;\n    address manufacturer;\n    address wholesaler;\n    address distributer;\n    address pharma;\n    madicineStatus status;    \n\n    event ShippmentUpdate(\n        address indexed BatchID, \n        address indexed Shipper, \n        address indexed Receiver, \n        uint TransporterType, \n        uint Status\n    );\n\n    constructor(\n        address Manu,\n        bytes32 Des,\n        bytes32 RM,\n        uint Quant,\n        address Shpr,\n        address Rcvr,\n        uint RcvrType\n    ) public {\n        Owner = Manu;\n        manufacturer = Manu;\n        description = Des;\n        rawmatriales = RM;\n        quantity = Quant;\n        shipper = Shpr;\n        if(RcvrType == 1) {\n            wholesaler = Rcvr;\n        } else if( RcvrType == 2){\n            distributer = Rcvr;\n        }\n    }\n\n    function getmadicineInfo () public view returns(\n        address Manu,\n        bytes32 Des,\n        bytes32 RM,\n        uint Quant,\n        address Shpr\n    ) {\n        return(\n            manufacturer,\n            description,\n            rawmatriales,\n            quantity,\n            shipper\n        );\n    }\n\n    function getWDP() public view returns(\n        address[3] memory WDP \n    ) {\n        return (\n            [wholesaler,distributer,pharma]\n        );\n    }\n\n    function getStatusOfBatchID() public view returns(\n        uint\n    ) {\n        return uint(status);\n    }\n\n    function pickPackage(\n        address shpr\n    ) public {\n        require(\n            shpr == shipper,\n            \"Only Associate Shipper can call this function\"\n        );\n        require(\n            status == madicineStatus(0),\n            \"Package must be at Supplier.\"\n        );\n    \n        if(wholesaler!=address(0x0)){\n            status = madicineStatus(1);\n            emit ShippmentUpdate(address(this),shipper,wholesaler,1,1);\n        }else{\n            status = madicineStatus(2);\n            emit ShippmentUpdate(address(this),shipper,distributer,1,1);\n        }\n    }\n\n    function receivedPackage(\n        address Rcvr\n    ) public \n    returns(uint rcvtype)\n    {\n        \n        require(\n            Rcvr == wholesaler || Rcvr == distributer,\n            \"Only Associate Wholesaler or Distrubuter can call this function\"\n        );\n\n        require(\n            uint(status) >= 1,\n            \"Product not picked up yet\"\n        );\n\n        if(Rcvr == wholesaler && status == madicineStatus(1)){\n            status = madicineStatus(3);\n            emit ShippmentUpdate(address(this),shipper,wholesaler,2,3);\n            return 1;\n        } else if(Rcvr == distributer && status == madicineStatus(2)){\n            status = madicineStatus(4);\n            emit ShippmentUpdate(address(this),shipper,distributer,3,4);\n            return 2;\n        }\n    }\n\n    function sendWD(\n        address receiver,\n        address sender\n    ) public {\n        require(\n            wholesaler == sender,\n            \"this Wholesaler is not Associated.\"\n        );\n        distributer = receiver;\n        status = madicineStatus(2);\n    }\n\n    function recievedWD(\n        address receiver\n    ) public {\n        require(\n            distributer == receiver,\n            \"This Distributer is not Associated.\"\n        );\n        status = madicineStatus(4);\n    }\n\n    function sendDP(\n        address receiver,\n        address sender\n    ) public {\n        require(\n            distributer == sender,\n            \"this Distributer is not Associated.\"\n        );\n        pharma = receiver;\n        status = madicineStatus(5);\n    }\n\n    function recievedDP(\n        address receiver\n    ) public {\n        require(\n            pharma == receiver,\n            \"This Pharma is not Associated.\"\n        );\n        status = madicineStatus(6);\n    }\n}\n\n/********************************************** MadicineW_D ******************************************/\ncontract MadicineW_D {\n    address Owner;\n\n    enum packageStatus { atcreator, picked, delivered}\n\n    address batchid;\n    address sender;\n    address shipper;\n    address receiver;\n    packageStatus status;\n\n    constructor(\n        address BatchID,\n        address Sender,\n        address Shipper,\n        address Receiver\n    ) public {\n        Owner = Sender;\n        batchid = BatchID;\n        sender = Sender;\n        shipper = Shipper;\n        receiver = Receiver;\n        status = packageStatus(0);\n\n       \n    }\n\n    function pickWD(\n        address BatchID,\n        address Shipper\n    ) public {\n        require(\n            Shipper == shipper,\n            \"Only Associated shipper can call this function.\"\n        );\n        status = packageStatus(1);\n        \n         Madicine(BatchID).sendWD(\n            receiver,\n            sender\n        );\n    }\n\n    function recieveWD(\n        address BatchID,\n        address Receiver\n    ) public {\n        require(\n            Receiver == receiver,\n            \"Only Associated receiver can call this function.\"\n        );\n        status = packageStatus(2);\n        \n        Madicine(BatchID).recievedWD(\n            Receiver\n        );\n    }\n    \n    function getStatusOfBatchID() public view returns(\n        uint\n    ) {\n        return uint(status);\n    }\n\n}\n\n/********************************************** MadicineD_P ******************************************/\ncontract MadicineD_P {\n    address Owner;\n\n    enum packageStatus { atcreator, picked, delivered}\n\n    address batchid;\n    address sender;\n    address shipper;\n    address receiver;\n    packageStatus status;\n\n    constructor(\n        address BatchID,\n        address Sender,\n        address Shipper,\n        address Receiver\n    ) public {\n        Owner = Sender;\n        batchid = BatchID;\n        sender = Sender;\n        shipper = Shipper;\n        receiver = Receiver;\n        status = packageStatus(0);\n    }\n\n    function pickDP(\n        address BatchID,\n        address Shipper\n    ) public {\n        require(\n            Shipper == shipper,\n            \"Only Associated shipper can call this function.\"\n        );\n        status = packageStatus(1);\n        \n        Madicine(BatchID).sendDP(\n            receiver,\n            sender\n        );\n    }\n\n    function recieveDP(\n        address BatchID,\n        address Receiver\n    ) public {\n        require(\n            Receiver == receiver,\n            \"Only Associated receiver can call this function.\"\n        );\n        status = packageStatus(2);\n        \n        Madicine(BatchID).recievedDP(\n            Receiver\n        );\n    }\n\n    function getStatusOfBatchID() public view returns(\n        uint\n    ) {\n        return uint(status);\n    }\n\n}\n\n",
  "sourcePath": "/home/celebal/personal/ethereum/Blockchain_SupplyChain/contracts/SupplyChain.sol",
  "compiler": {
    "name": "solc",
    "version": "0.5.1+commit.c8a2cb62.Emscripten.clang"
  },
  "schemaVersion": "3.0.0",
  "updatedAt": "2019-01-30T07:05:28.363Z",
  "devdoc": {
    "methods": {}
  },
  "userdoc": {
    "methods": {},
    "notice": "******************************************** RawMatrials *****************************************"
  }
}