{
  "contractName": "SupplyChain",
  "abi": [
    {
      "constant": true,
      "inputs": [],
      "name": "Owner",
      "outputs": [
        {
          "name": "",
          "type": "address"
        }
      ],
      "payable": false,
      "stateMutability": "view",
      "type": "function",
      "signature": "0xb4a99a4e"
    },
    {
      "inputs": [],
      "payable": false,
      "stateMutability": "nonpayable",
      "type": "constructor",
      "signature": "constructor"
    },
    {
      "anonymous": false,
      "inputs": [
        {
          "indexed": true,
          "name": "EthAddress",
          "type": "address"
        },
        {
          "indexed": false,
          "name": "Name",
          "type": "bytes32"
        }
      ],
      "name": "UserRegister",
      "type": "event",
      "signature": "0x33a7170f028b1e4f5ba321064a00ed820856a920c7f9c6636fbcf385427b1b0f"
    },
    {
      "anonymous": false,
      "inputs": [
        {
          "indexed": true,
          "name": "EthAddress",
          "type": "address"
        },
        {
          "indexed": false,
          "name": "Name",
          "type": "bytes32"
        },
        {
          "indexed": false,
          "name": "Role",
          "type": "uint256"
        }
      ],
      "name": "UserRoleRevoked",
      "type": "event",
      "signature": "0xb5f04dfc1ccfefb366c4dc7a23670362462e0a415afb89d8cba1fb657e264c96"
    },
    {
      "anonymous": false,
      "inputs": [
        {
          "indexed": true,
          "name": "EthAddress",
          "type": "address"
        },
        {
          "indexed": false,
          "name": "Name",
          "type": "bytes32"
        },
        {
          "indexed": false,
          "name": "Role",
          "type": "uint256"
        }
      ],
      "name": "UserRoleRessigne",
      "type": "event",
      "signature": "0x4c8b3f61ed94356876db0fec52d6a7c6aeaf772c4e0ca8f6da74331cc0f687cc"
    },
    {
      "anonymous": false,
      "inputs": [
        {
          "indexed": true,
          "name": "ProductID",
          "type": "bytes32"
        },
        {
          "indexed": true,
          "name": "Supplier",
          "type": "address"
        },
        {
          "indexed": false,
          "name": "Shipper",
          "type": "address"
        },
        {
          "indexed": true,
          "name": "Receiver",
          "type": "address"
        }
      ],
      "name": "RawSupplyInit",
      "type": "event",
      "signature": "0x3526c908ab533632ede64662724d93d6c153d7f743618f475ff994b850de4d8c"
    },
    {
      "anonymous": false,
      "inputs": [
        {
          "indexed": true,
          "name": "BatchId",
          "type": "bytes32"
        },
        {
          "indexed": true,
          "name": "Shipper",
          "type": "address"
        },
        {
          "indexed": true,
          "name": "receiver",
          "type": "address"
        },
        {
          "indexed": false,
          "name": "transportertype",
          "type": "uint256"
        },
        {
          "indexed": false,
          "name": "status",
          "type": "uint256"
        }
      ],
      "name": "ShippmentUpdate",
      "type": "event",
      "signature": "0x064fe04394fef40d84544d70823d9be8bbb02f4bbb5c0612f20be8159aabaac6"
    },
    {
      "anonymous": false,
      "inputs": [
        {
          "indexed": true,
          "name": "BatchID",
          "type": "bytes32"
        },
        {
          "indexed": true,
          "name": "shipper",
          "type": "address"
        },
        {
          "indexed": true,
          "name": "supplier",
          "type": "address"
        },
        {
          "indexed": false,
          "name": "receiver",
          "type": "address"
        }
      ],
      "name": "RawProductReceive",
      "type": "event",
      "signature": "0x5ece0855ece9d3bef8346ff1fe04663cc7fb712acc152c6f14a6e19dad7fe936"
    },
    {
      "anonymous": false,
      "inputs": [
        {
          "indexed": true,
          "name": "BatchId",
          "type": "bytes32"
        },
        {
          "indexed": true,
          "name": "Manufacturer",
          "type": "address"
        },
        {
          "indexed": false,
          "name": "shipper",
          "type": "address"
        },
        {
          "indexed": true,
          "name": "Reciever",
          "type": "address"
        }
      ],
      "name": "MadicineNewBatch",
      "type": "event",
      "signature": "0x3b6f991d2aa45abbc101b22db208a600efaf11748c710c51aaab7b828d1a9916"
    },
    {
      "anonymous": false,
      "inputs": [
        {
          "indexed": true,
          "name": "BathcID",
          "type": "bytes32"
        },
        {
          "indexed": true,
          "name": "Sender",
          "type": "address"
        },
        {
          "indexed": true,
          "name": "Shipper",
          "type": "address"
        },
        {
          "indexed": false,
          "name": "Receiver",
          "type": "address"
        }
      ],
      "name": "MedicineReceive",
      "type": "event",
      "signature": "0x7478eec01e702b6b7f202eb1c19675e24ae1eebb6c87e1ff6574e166d5f43cdb"
    },
    {
      "anonymous": false,
      "inputs": [
        {
          "indexed": true,
          "name": "BatchID",
          "type": "bytes32"
        },
        {
          "indexed": true,
          "name": "Shipper",
          "type": "address"
        },
        {
          "indexed": true,
          "name": "Receiver",
          "type": "address"
        },
        {
          "indexed": false,
          "name": "Sender",
          "type": "address"
        }
      ],
      "name": "MedicineTransportWtoD",
      "type": "event",
      "signature": "0xfad615ed1c60bf65312a19f25cdf659c8e809d971b3ef99f1a8354b80fc8fad9"
    },
    {
      "anonymous": false,
      "inputs": [
        {
          "indexed": true,
          "name": "BatchID",
          "type": "bytes32"
        },
        {
          "indexed": true,
          "name": "Shipper",
          "type": "address"
        },
        {
          "indexed": true,
          "name": "Receiver",
          "type": "address"
        },
        {
          "indexed": false,
          "name": "Sender",
          "type": "address"
        }
      ],
      "name": "MedicineShipToPharma",
      "type": "event",
      "signature": "0x441f5e2afdb3b50e71754e00bf975ec5511a6e68962f37e3b0bcd28678b28539"
    },
    {
      "anonymous": false,
      "inputs": [
        {
          "indexed": true,
          "name": "BatchID",
          "type": "bytes32"
        },
        {
          "indexed": true,
          "name": "Shipper",
          "type": "address"
        },
        {
          "indexed": true,
          "name": "Sender",
          "type": "address"
        },
        {
          "indexed": false,
          "name": "Receiver",
          "type": "address"
        }
      ],
      "name": "MedicineReceiveAtPharma",
      "type": "event",
      "signature": "0xd2cdcf69957c14edd1b02f1842e1b16ec6d6e72a7f2885ebb4377b5fec9740dd"
    },
    {
      "anonymous": false,
      "inputs": [
        {
          "indexed": false,
          "name": "BatchID",
          "type": "bytes32"
        },
        {
          "indexed": true,
          "name": "Pharma",
          "type": "address"
        },
        {
          "indexed": false,
          "name": "status",
          "type": "uint256"
        }
      ],
      "name": "MedicineStatus",
      "type": "event",
      "signature": "0xe7b14e8a1267505d152402dcb3fe6f7e936a894404546dc49e6bd6dc83d0ab2c"
    },
    {
      "constant": false,
      "inputs": [
        {
          "name": "EthAddress",
          "type": "address"
        },
        {
          "name": "Name",
          "type": "bytes32"
        },
        {
          "name": "Location",
          "type": "bytes32"
        },
        {
          "name": "Role",
          "type": "uint256"
        }
      ],
      "name": "registerUser",
      "outputs": [],
      "payable": false,
      "stateMutability": "nonpayable",
      "type": "function",
      "signature": "0x923f645a"
    },
    {
      "constant": false,
      "inputs": [
        {
          "name": "userAddress",
          "type": "address"
        }
      ],
      "name": "revokeRole",
      "outputs": [],
      "payable": false,
      "stateMutability": "nonpayable",
      "type": "function",
      "signature": "0x80e52e3f"
    },
    {
      "constant": false,
      "inputs": [
        {
          "name": "userAddress",
          "type": "address"
        },
        {
          "name": "Role",
          "type": "uint256"
        }
      ],
      "name": "reassigneRole",
      "outputs": [],
      "payable": false,
      "stateMutability": "nonpayable",
      "type": "function",
      "signature": "0x373d5c18"
    },
    {
      "constant": true,
      "inputs": [
        {
          "name": "User",
          "type": "address"
        }
      ],
      "name": "getUserInfo",
      "outputs": [
        {
          "name": "name",
          "type": "bytes32"
        },
        {
          "name": "location",
          "type": "bytes32"
        },
        {
          "name": "ethAddress",
          "type": "address"
        },
        {
          "name": "role",
          "type": "uint8"
        }
      ],
      "payable": false,
      "stateMutability": "view",
      "type": "function",
      "signature": "0x6386c1c7"
    },
    {
      "constant": true,
      "inputs": [],
      "name": "getUsersCount",
      "outputs": [
        {
          "name": "count",
          "type": "uint256"
        }
      ],
      "payable": false,
      "stateMutability": "view",
      "type": "function",
      "signature": "0xa4a1e263"
    },
    {
      "constant": true,
      "inputs": [
        {
          "name": "index",
          "type": "uint256"
        }
      ],
      "name": "getUserbyIndex",
      "outputs": [
        {
          "name": "name",
          "type": "bytes32"
        },
        {
          "name": "location",
          "type": "bytes32"
        },
        {
          "name": "ethAddress",
          "type": "address"
        },
        {
          "name": "role",
          "type": "uint8"
        }
      ],
      "payable": false,
      "stateMutability": "view",
      "type": "function",
      "signature": "0x108329f8"
    },
    {
      "constant": false,
      "inputs": [
        {
          "name": "Description",
          "type": "bytes32"
        },
        {
          "name": "FarmerName",
          "type": "bytes32"
        },
        {
          "name": "Location",
          "type": "bytes32"
        },
        {
          "name": "Quantity",
          "type": "uint256"
        },
        {
          "name": "Shipper",
          "type": "address"
        },
        {
          "name": "Receiver",
          "type": "address"
        }
      ],
      "name": "supplyRaw",
      "outputs": [],
      "payable": false,
      "stateMutability": "nonpayable",
      "type": "function",
      "signature": "0xf931cdec"
    },
    {
      "constant": true,
      "inputs": [],
      "name": "getCountOfProducts",
      "outputs": [
        {
          "name": "count",
          "type": "uint256"
        }
      ],
      "payable": false,
      "stateMutability": "view",
      "type": "function",
      "signature": "0xa075743d"
    },
    {
      "constant": true,
      "inputs": [
        {
          "name": "index",
          "type": "uint256"
        }
      ],
      "name": "getProductIdByIndex",
      "outputs": [
        {
          "name": "BatchID",
          "type": "bytes32"
        }
      ],
      "payable": false,
      "stateMutability": "view",
      "type": "function",
      "signature": "0x602c9745"
    },
    {
      "constant": true,
      "inputs": [
        {
          "name": "pid",
          "type": "bytes32"
        }
      ],
      "name": "getSupplyRaw",
      "outputs": [
        {
          "name": "description",
          "type": "bytes32"
        },
        {
          "name": "farmer_name",
          "type": "bytes32"
        },
        {
          "name": "location",
          "type": "bytes32"
        },
        {
          "name": "quantity",
          "type": "uint256"
        },
        {
          "name": "shipper",
          "type": "address"
        },
        {
          "name": "receiver",
          "type": "address"
        },
        {
          "name": "supplier",
          "type": "address"
        }
      ],
      "payable": false,
      "stateMutability": "view",
      "type": "function",
      "signature": "0xe25f38fe"
    },
    {
      "constant": true,
      "inputs": [
        {
          "name": "pid",
          "type": "bytes32"
        }
      ],
      "name": "getStatusOfRawMatrials",
      "outputs": [
        {
          "name": "status",
          "type": "uint256"
        }
      ],
      "payable": false,
      "stateMutability": "view",
      "type": "function",
      "signature": "0x3f36d728"
    },
    {
      "constant": false,
      "inputs": [
        {
          "name": "pid",
          "type": "bytes32"
        },
        {
          "name": "transportertype",
          "type": "uint256"
        },
        {
          "name": "receivertype",
          "type": "uint256"
        }
      ],
      "name": "loadpacakage",
      "outputs": [],
      "payable": false,
      "stateMutability": "nonpayable",
      "type": "function",
      "signature": "0x7eee0742"
    },
    {
      "constant": false,
      "inputs": [
        {
          "name": "pid",
          "type": "bytes32"
        }
      ],
      "name": "rawProductReceived",
      "outputs": [],
      "payable": false,
      "stateMutability": "nonpayable",
      "type": "function",
      "signature": "0xd17cd90a"
    },
    {
      "constant": false,
      "inputs": [
        {
          "name": "Description",
          "type": "bytes32"
        },
        {
          "name": "RawMatrials",
          "type": "bytes32"
        },
        {
          "name": "Quantity",
          "type": "uint256"
        },
        {
          "name": "Shipper",
          "type": "address"
        },
        {
          "name": "Receiver",
          "type": "address"
        },
        {
          "name": "receivertype",
          "type": "uint256"
        }
      ],
      "name": "newBatch",
      "outputs": [],
      "payable": false,
      "stateMutability": "nonpayable",
      "type": "function",
      "signature": "0xede59592"
    },
    {
      "constant": true,
      "inputs": [],
      "name": "getMadicineBatchCount",
      "outputs": [
        {
          "name": "count",
          "type": "uint256"
        }
      ],
      "payable": false,
      "stateMutability": "view",
      "type": "function",
      "signature": "0xe7656200"
    },
    {
      "constant": true,
      "inputs": [
        {
          "name": "index",
          "type": "uint256"
        }
      ],
      "name": "getBatchIDByIndex",
      "outputs": [
        {
          "name": "BatchID",
          "type": "bytes32"
        }
      ],
      "payable": false,
      "stateMutability": "view",
      "type": "function",
      "signature": "0x916e99c5"
    },
    {
      "constant": true,
      "inputs": [
        {
          "name": "batchID",
          "type": "bytes32"
        }
      ],
      "name": "getMadicineInfo",
      "outputs": [
        {
          "name": "Description",
          "type": "bytes32"
        },
        {
          "name": "RawMatrials",
          "type": "bytes32"
        },
        {
          "name": "Quantity",
          "type": "uint256"
        },
        {
          "name": "Shipper",
          "type": "address"
        },
        {
          "name": "Manufacturer",
          "type": "address"
        }
      ],
      "payable": false,
      "stateMutability": "view",
      "type": "function",
      "signature": "0xbb51e3ba"
    },
    {
      "constant": true,
      "inputs": [
        {
          "name": "batchID",
          "type": "bytes32"
        }
      ],
      "name": "getWDP",
      "outputs": [
        {
          "name": "Wholesaler",
          "type": "address"
        },
        {
          "name": "Distributer",
          "type": "address"
        },
        {
          "name": "Pharma",
          "type": "address"
        }
      ],
      "payable": false,
      "stateMutability": "view",
      "type": "function",
      "signature": "0x0173ce2c"
    },
    {
      "constant": true,
      "inputs": [
        {
          "name": "BatchID",
          "type": "bytes32"
        }
      ],
      "name": "getMedicineStatus",
      "outputs": [
        {
          "name": "status",
          "type": "uint256"
        }
      ],
      "payable": false,
      "stateMutability": "view",
      "type": "function",
      "signature": "0x7bfda362"
    },
    {
      "constant": false,
      "inputs": [
        {
          "name": "pid",
          "type": "bytes32"
        }
      ],
      "name": "medicineReceived",
      "outputs": [],
      "payable": false,
      "stateMutability": "nonpayable",
      "type": "function",
      "signature": "0x72d574ae"
    },
    {
      "constant": false,
      "inputs": [
        {
          "name": "BatchID",
          "type": "bytes32"
        },
        {
          "name": "Shipper",
          "type": "address"
        },
        {
          "name": "Receiver",
          "type": "address"
        }
      ],
      "name": "shipMedicineWtoD",
      "outputs": [],
      "payable": false,
      "stateMutability": "nonpayable",
      "type": "function",
      "signature": "0xfaefa335"
    },
    {
      "constant": true,
      "inputs": [
        {
          "name": "BatchID",
          "type": "bytes32"
        }
      ],
      "name": "shipInfoWtoD",
      "outputs": [
        {
          "name": "shipper",
          "type": "address"
        },
        {
          "name": "receiver",
          "type": "address"
        },
        {
          "name": "status",
          "type": "uint256"
        }
      ],
      "payable": false,
      "stateMutability": "view",
      "type": "function",
      "signature": "0x4cd22da0"
    },
    {
      "constant": true,
      "inputs": [],
      "name": "getBatchIdCountW",
      "outputs": [
        {
          "name": "count",
          "type": "uint256"
        }
      ],
      "payable": false,
      "stateMutability": "view",
      "type": "function",
      "signature": "0x3df1ea0a"
    },
    {
      "constant": true,
      "inputs": [
        {
          "name": "index",
          "type": "uint256"
        }
      ],
      "name": "getBatchIdByIndexW",
      "outputs": [
        {
          "name": "BatchID",
          "type": "bytes32"
        }
      ],
      "payable": false,
      "stateMutability": "view",
      "type": "function",
      "signature": "0x76e903aa"
    },
    {
      "constant": false,
      "inputs": [
        {
          "name": "BatchID",
          "type": "bytes32"
        },
        {
          "name": "Shipper",
          "type": "address"
        },
        {
          "name": "Receiver",
          "type": "address"
        }
      ],
      "name": "shipMedicineDtoP",
      "outputs": [],
      "payable": false,
      "stateMutability": "nonpayable",
      "type": "function",
      "signature": "0xc155cf68"
    },
    {
      "constant": true,
      "inputs": [
        {
          "name": "BatchID",
          "type": "bytes32"
        }
      ],
      "name": "shipInfoDtoP",
      "outputs": [
        {
          "name": "shipper",
          "type": "address"
        },
        {
          "name": "receiver",
          "type": "address"
        },
        {
          "name": "status",
          "type": "uint256"
        }
      ],
      "payable": false,
      "stateMutability": "view",
      "type": "function",
      "signature": "0x71ffd7f8"
    },
    {
      "constant": true,
      "inputs": [],
      "name": "getBatchIdCountD",
      "outputs": [
        {
          "name": "count",
          "type": "uint256"
        }
      ],
      "payable": false,
      "stateMutability": "view",
      "type": "function",
      "signature": "0x4f0dc53e"
    },
    {
      "constant": true,
      "inputs": [
        {
          "name": "index",
          "type": "uint256"
        }
      ],
      "name": "getBatchIdByIndexD",
      "outputs": [
        {
          "name": "BatchID",
          "type": "bytes32"
        }
      ],
      "payable": false,
      "stateMutability": "view",
      "type": "function",
      "signature": "0x31dbe6a1"
    },
    {
      "constant": false,
      "inputs": [
        {
          "name": "BatchID",
          "type": "bytes32"
        }
      ],
      "name": "receiveMedicineFormD",
      "outputs": [],
      "payable": false,
      "stateMutability": "nonpayable",
      "type": "function",
      "signature": "0xb782e731"
    },
    {
      "constant": false,
      "inputs": [
        {
          "name": "BatchID",
          "type": "bytes32"
        },
        {
          "name": "Status",
          "type": "uint256"
        }
      ],
      "name": "updateSaleStatus",
      "outputs": [],
      "payable": false,
      "stateMutability": "nonpayable",
      "type": "function",
      "signature": "0xf35ea805"
    },
    {
      "constant": true,
      "inputs": [
        {
          "name": "BatchID",
          "type": "bytes32"
        }
      ],
      "name": "salesInfo",
      "outputs": [
        {
          "name": "Status",
          "type": "uint256"
        }
      ],
      "payable": false,
      "stateMutability": "view",
      "type": "function",
      "signature": "0xe7776468"
    },
    {
      "constant": true,
      "inputs": [],
      "name": "getBatchIdCountP",
      "outputs": [
        {
          "name": "count",
          "type": "uint256"
        }
      ],
      "payable": false,
      "stateMutability": "view",
      "type": "function",
      "signature": "0xa37a27d7"
    },
    {
      "constant": true,
      "inputs": [
        {
          "name": "index",
          "type": "uint256"
        }
      ],
      "name": "getBatchIdByIndexP",
      "outputs": [
        {
          "name": "BatchID",
          "type": "bytes32"
        }
      ],
      "payable": false,
      "stateMutability": "view",
      "type": "function",
      "signature": "0xe5bff92a"
    }
  ],
  "bytecode": "0x608060405234801561001057600080fd5b50336000806101000a81548173ffffffffffffffffffffffffffffffffffffffff021916908373ffffffffffffffffffffffffffffffffffffffff160217905550615fd680620000616000396000f3fe6080604052600436106101a6576000357c0100000000000000000000000000000000000000000000000000000000900480630173ce2c146101ab578063108329f81461028c57806331dbe6a11461032a578063373d5c18146103795780633df1ea0a146103d45780633f36d728146103ff5780634cd22da01461044e5780634f0dc53e14610503578063602c97451461052e5780636386c1c71461057d57806371ffd7f81461063157806372d574ae146106e657806376e903aa146107215780637bfda362146107705780637eee0742146107bf57806380e52e3f1461080e578063916e99c51461085f578063923f645a146108ae578063a075743d1461091d578063a37a27d714610948578063a4a1e26314610973578063b4a99a4e1461099e578063b782e731146109f5578063bb51e3ba14610a30578063c155cf6814610af3578063d17cd90a14610b6e578063e25f38fe14610ba9578063e5bff92a14610ca6578063e765620014610cf5578063e777646814610d20578063ede5959214610d6f578063f35ea80514610e08578063f931cdec14610e4d578063faefa33514610ee6575b600080fd5b3480156101b757600080fd5b506101e4600480360360208110156101ce57600080fd5b8101908080359060200190929190505050610f61565b604051808473ffffffffffffffffffffffffffffffffffffffff1673ffffffffffffffffffffffffffffffffffffffff1681526020018373ffffffffffffffffffffffffffffffffffffffff1673ffffffffffffffffffffffffffffffffffffffff1681526020018273ffffffffffffffffffffffffffffffffffffffff1673ffffffffffffffffffffffffffffffffffffffff168152602001935050505060405180910390f35b34801561029857600080fd5b506102c5600480360360208110156102af57600080fd5b8101908080359060200190929190505050611018565b604051808581526020018481526020018373ffffffffffffffffffffffffffffffffffffffff1673ffffffffffffffffffffffffffffffffffffffff16815260200182600781111561031357fe5b60ff16815260200194505050505060405180910390f35b34801561033657600080fd5b506103636004803603602081101561034d57600080fd5b810190808035906020019092919050505061106f565b6040518082815260200191505060405180910390f35b34801561038557600080fd5b506103d26004803603604081101561039c57600080fd5b81019080803573ffffffffffffffffffffffffffffffffffffffff169060200190929190803590602001909291905050506111f8565b005b3480156103e057600080fd5b506103e9611524565b6040518082815260200191505060405180910390f35b34801561040b57600080fd5b506104386004803603602081101561042257600080fd5b8101908080359060200190929190505050611697565b6040518082815260200191505060405180910390f35b34801561045a57600080fd5b506104876004803603602081101561047157600080fd5b81019080803590602001909291905050506116cf565b604051808473ffffffffffffffffffffffffffffffffffffffff1673ffffffffffffffffffffffffffffffffffffffff1681526020018373ffffffffffffffffffffffffffffffffffffffff1673ffffffffffffffffffffffffffffffffffffffff168152602001828152602001935050505060405180910390f35b34801561050f57600080fd5b5061051861177e565b6040518082815260200191505060405180910390f35b34801561053a57600080fd5b506105676004803603602081101561055157600080fd5b81019080803590602001909291905050506118f1565b6040518082815260200191505060405180910390f35b34801561058957600080fd5b506105cc600480360360208110156105a057600080fd5b81019080803573ffffffffffffffffffffffffffffffffffffffff169060200190929190505050611a54565b604051808581526020018481526020018373ffffffffffffffffffffffffffffffffffffffff1673ffffffffffffffffffffffffffffffffffffffff16815260200182600781111561061a57fe5b60ff16815260200194505050505060405180910390f35b34801561063d57600080fd5b5061066a6004803603602081101561065457600080fd5b8101908080359060200190929190505050611ba2565b604051808473ffffffffffffffffffffffffffffffffffffffff1673ffffffffffffffffffffffffffffffffffffffff1681526020018373ffffffffffffffffffffffffffffffffffffffff1673ffffffffffffffffffffffffffffffffffffffff168152602001828152602001935050505060405180910390f35b3480156106f257600080fd5b5061071f6004803603602081101561070957600080fd5b8101908080359060200190929190505050611c51565b005b34801561072d57600080fd5b5061075a6004803603602081101561074457600080fd5b81019080803590602001909291905050506126ae565b6040518082815260200191505060405180910390f35b34801561077c57600080fd5b506107a96004803603602081101561079357600080fd5b8101908080359060200190929190505050612837565b6040518082815260200191505060405180910390f35b3480156107cb57600080fd5b5061080c600480360360608110156107e257600080fd5b8101908080359060200190929190803590602001909291908035906020019092919050505061286f565b005b34801561081a57600080fd5b5061085d6004803603602081101561083157600080fd5b81019080803573ffffffffffffffffffffffffffffffffffffffff1690602001909291905050506132a4565b005b34801561086b57600080fd5b506108986004803603602081101561088257600080fd5b81019080803590602001909291905050506135cf565b6040518082815260200191505060405180910390f35b3480156108ba57600080fd5b5061091b600480360360808110156108d157600080fd5b81019080803573ffffffffffffffffffffffffffffffffffffffff169060200190929190803590602001909291908035906020019092919080359060200190929190505050613732565b005b34801561092957600080fd5b50610932613b30565b6040518082815260200191505060405180910390f35b34801561095457600080fd5b5061095d613c7d565b6040518082815260200191505060405180910390f35b34801561097f57600080fd5b50610988613df0565b6040518082815260200191505060405180910390f35b3480156109aa57600080fd5b506109b3613dfd565b604051808273ffffffffffffffffffffffffffffffffffffffff1673ffffffffffffffffffffffffffffffffffffffff16815260200191505060405180910390f35b348015610a0157600080fd5b50610a2e60048036036020811015610a1857600080fd5b8101908080359060200190929190505050613e22565b005b348015610a3c57600080fd5b50610a6960048036036020811015610a5357600080fd5b81019080803590602001909291905050506141c0565b604051808681526020018581526020018481526020018373ffffffffffffffffffffffffffffffffffffffff1673ffffffffffffffffffffffffffffffffffffffff1681526020018273ffffffffffffffffffffffffffffffffffffffff1673ffffffffffffffffffffffffffffffffffffffff1681526020019550505050505060405180910390f35b348015610aff57600080fd5b50610b6c60048036036060811015610b1657600080fd5b8101908080359060200190929190803573ffffffffffffffffffffffffffffffffffffffff169060200190929190803573ffffffffffffffffffffffffffffffffffffffff16906020019092919050505061428e565b005b348015610b7a57600080fd5b50610ba760048036036020811015610b9157600080fd5b810190808035906020019092919050505061466d565b005b348015610bb557600080fd5b50610be260048036036020811015610bcc57600080fd5b8101908080359060200190929190505050614b3e565b604051808881526020018781526020018681526020018581526020018473ffffffffffffffffffffffffffffffffffffffff1673ffffffffffffffffffffffffffffffffffffffff1681526020018373ffffffffffffffffffffffffffffffffffffffff1673ffffffffffffffffffffffffffffffffffffffff1681526020018273ffffffffffffffffffffffffffffffffffffffff1673ffffffffffffffffffffffffffffffffffffffff16815260200197505050505050505060405180910390f35b348015610cb257600080fd5b50610cdf60048036036020811015610cc957600080fd5b8101908080359060200190929190505050614c63565b6040518082815260200191505060405180910390f35b348015610d0157600080fd5b50610d0a614dec565b6040518082815260200191505060405180910390f35b348015610d2c57600080fd5b50610d5960048036036020811015610d4357600080fd5b8101908080359060200190929190505050614f39565b6040518082815260200191505060405180910390f35b348015610d7b57600080fd5b50610e06600480360360c0811015610d9257600080fd5b81019080803590602001909291908035906020019092919080359060200190929190803573ffffffffffffffffffffffffffffffffffffffff169060200190929190803573ffffffffffffffffffffffffffffffffffffffff16906020019092919080359060200190929190505050614f6e565b005b348015610e1457600080fd5b50610e4b60048036036040811015610e2b57600080fd5b810190808035906020019092919080359060200190929190505050615480565b005b348015610e5957600080fd5b50610ee4600480360360c0811015610e7057600080fd5b8101908080359060200190929190803590602001909291908035906020019092919080359060200190929190803573ffffffffffffffffffffffffffffffffffffffff169060200190929190803573ffffffffffffffffffffffffffffffffffffffff169060200190929190505050615742565b005b348015610ef257600080fd5b50610f5f60048036036060811015610f0957600080fd5b8101908080359060200190929190803573ffffffffffffffffffffffffffffffffffffffff169060200190929190803573ffffffffffffffffffffffffffffffffffffffff169060200190929190505050615b88565b005b60008060006006600085815260200190815260200160002060060160009054906101000a900473ffffffffffffffffffffffffffffffffffffffff166006600086815260200190815260200160002060070160009054906101000a900473ffffffffffffffffffffffffffffffffffffffff166006600087815260200190815260200160002060080160009054906101000a900473ffffffffffffffffffffffffffffffffffffffff169250925092509193909250565b60008060008061106060028681548110151561103057fe5b9060005260206000200160009054906101000a900473ffffffffffffffffffffffffffffffffffffffff16611a54565b93509350935093509193509193565b60006005600781111561107e57fe5b600160003373ffffffffffffffffffffffffffffffffffffffff1673ffffffffffffffffffffffffffffffffffffffff16815260200190815260200160002060020160149054906101000a900460ff1660078111156110d957fe5b14151561119a576040517f08c379a00000000000000000000000000000000000000000000000000000000081526004018080602001828103825260428152602001807f4f6e6c792057686f6c6573616c6572206f722063757272656e74206f776e657281526020017f206f66207061636b6167652063616e2063616c6c20746869732066756e63746981526020017f6f6e00000000000000000000000000000000000000000000000000000000000081525060600191505060405180910390fd5b600a60003373ffffffffffffffffffffffffffffffffffffffff1673ffffffffffffffffffffffffffffffffffffffff168152602001908152602001600020828154811015156111e657fe5b90600052602060002001549050919050565b6000809054906101000a900473ffffffffffffffffffffffffffffffffffffffff1673ffffffffffffffffffffffffffffffffffffffff163373ffffffffffffffffffffffffffffffffffffffff161415156112e2576040517f08c379a00000000000000000000000000000000000000000000000000000000081526004018080602001828103825260228152602001807f4f6e6c79206f776e65722063616e2063616c6c20746869732066756e6374696f81526020017f6e2e00000000000000000000000000000000000000000000000000000000000081525060400191505060405180910390fd5b600060078111156112ef57fe5b600160008473ffffffffffffffffffffffffffffffffffffffff1673ffffffffffffffffffffffffffffffffffffffff16815260200190815260200160002060020160149054906101000a900460ff16600781111561134a57fe5b141515156113c0576040517f08c379a00000000000000000000000000000000000000000000000000000000081526004018080602001828103825260138152602001807f55736572206e6f7420726567697374657265640000000000000000000000000081525060200191505060405180910390fd5b8060078111156113cc57fe5b600160008473ffffffffffffffffffffffffffffffffffffffff1673ffffffffffffffffffffffffffffffffffffffff16815260200190815260200160002060020160146101000a81548160ff0219169083600781111561142957fe5b02179055508173ffffffffffffffffffffffffffffffffffffffff167f4c8b3f61ed94356876db0fec52d6a7c6aeaf772c4e0ca8f6da74331cc0f687cc600160008573ffffffffffffffffffffffffffffffffffffffff1673ffffffffffffffffffffffffffffffffffffffff16815260200190815260200160002060000154600160008673ffffffffffffffffffffffffffffffffffffffff1673ffffffffffffffffffffffffffffffffffffffff16815260200190815260200160002060020160149054906101000a900460ff16600781111561150457fe5b604051808381526020018281526020019250505060405180910390a25050565b60006004600781111561153357fe5b600160003373ffffffffffffffffffffffffffffffffffffffff1673ffffffffffffffffffffffffffffffffffffffff16815260200190815260200160002060020160149054906101000a900460ff16600781111561158e57fe5b14151561164f576040517f08c379a00000000000000000000000000000000000000000000000000000000081526004018080602001828103825260428152602001807f4f6e6c792057686f6c6573616c6572206f722063757272656e74206f776e657281526020017f206f66207061636b6167652063616e2063616c6c20746869732066756e63746981526020017f6f6e00000000000000000000000000000000000000000000000000000000000081525060600191505060405180910390fd5b600860003373ffffffffffffffffffffffffffffffffffffffff1673ffffffffffffffffffffffffffffffffffffffff16815260200190815260200160002080549050905090565b60006003600083815260200190815260200160002060070160149054906101000a900460ff1660028111156116c857fe5b9050919050565b60008060006009600085815260200190815260200160002060020160009054906101000a900473ffffffffffffffffffffffffffffffffffffffff166009600086815260200190815260200160002060030160009054906101000a900473ffffffffffffffffffffffffffffffffffffffff166009600087815260200190815260200160002060030160149054906101000a900460ff16600281111561177157fe5b9250925092509193909250565b60006005600781111561178d57fe5b600160003373ffffffffffffffffffffffffffffffffffffffff1673ffffffffffffffffffffffffffffffffffffffff16815260200190815260200160002060020160149054906101000a900460ff1660078111156117e857fe5b1415156118a9576040517f08c379a00000000000000000000000000000000000000000000000000000000081526004018080602001828103825260428152602001807f4f6e6c792057686f6c6573616c6572206f722063757272656e74206f776e657281526020017f206f66207061636b6167652063616e2063616c6c20746869732066756e63746981526020017f6f6e00000000000000000000000000000000000000000000000000000000000081525060600191505060405180910390fd5b600a60003373ffffffffffffffffffffffffffffffffffffffff1673ffffffffffffffffffffffffffffffffffffffff16815260200190815260200160002080549050905090565b60006001600781111561190057fe5b600160003373ffffffffffffffffffffffffffffffffffffffff1673ffffffffffffffffffffffffffffffffffffffff16815260200190815260200160002060020160149054906101000a900460ff16600781111561195b57fe5b1415156119f6576040517f08c379a00000000000000000000000000000000000000000000000000000000081526004018080602001828103825260258152602001807f4f6e6c7920537570706c6965722043616e2063616c6c20746869732066756e6381526020017f74696f6e2000000000000000000000000000000000000000000000000000000081525060400191505060405180910390fd5b600460003373ffffffffffffffffffffffffffffffffffffffff1673ffffffffffffffffffffffffffffffffffffffff16815260200190815260200160002082815481101515611a4257fe5b90600052602060002001549050919050565b600080600080600160008673ffffffffffffffffffffffffffffffffffffffff1673ffffffffffffffffffffffffffffffffffffffff16815260200190815260200160002060000154600160008773ffffffffffffffffffffffffffffffffffffffff1673ffffffffffffffffffffffffffffffffffffffff16815260200190815260200160002060010154600160008873ffffffffffffffffffffffffffffffffffffffff1673ffffffffffffffffffffffffffffffffffffffff16815260200190815260200160002060020160009054906101000a900473ffffffffffffffffffffffffffffffffffffffff16600160008973ffffffffffffffffffffffffffffffffffffffff1673ffffffffffffffffffffffffffffffffffffffff16815260200190815260200160002060020160149054906101000a900460ff1693509350935093509193509193565b6000806000600b600085815260200190815260200160002060010160009054906101000a900473ffffffffffffffffffffffffffffffffffffffff16600b600086815260200190815260200160002060020160009054906101000a900473ffffffffffffffffffffffffffffffffffffffff16600b600087815260200190815260200160002060030160149054906101000a900460ff166002811115611c4457fe5b9250925092509193909250565b60046007811115611c5e57fe5b600160003373ffffffffffffffffffffffffffffffffffffffff1673ffffffffffffffffffffffffffffffffffffffff16815260200190815260200160002060020160149054906101000a900460ff166007811115611cb957fe5b1480611d2a575060056007811115611ccd57fe5b600160003373ffffffffffffffffffffffffffffffffffffffff1673ffffffffffffffffffffffffffffffffffffffff16815260200190815260200160002060020160149054906101000a900460ff166007811115611d2857fe5b145b1515611dc4576040517f08c379a00000000000000000000000000000000000000000000000000000000081526004018080602001828103825260368152602001807f4f6e6c792057686f6c6573616c657220616e642044697374726962757465722081526020017f63616e2063616c6c20746869732066756e6374696f6e0000000000000000000081525060400191505060405180910390fd5b806006600083815260200190815260200160002060000154141515611e51576040517f08c379a00000000000000000000000000000000000000000000000000000000081526004018080602001828103825260168152602001807f50726f6475637420646f6573206e6f742065786973740000000000000000000081525060200191505060405180910390fd5b60016006600083815260200190815260200160002060080160149054906101000a900460ff166006811115611e8257fe5b10151515611ef8576040517f08c379a00000000000000000000000000000000000000000000000000000000081526004018080602001828103825260198152602001807f50726f64756374206e6f74207069636b6564207570207965740000000000000081525060200191505060405180910390fd5b60018060003373ffffffffffffffffffffffffffffffffffffffff1673ffffffffffffffffffffffffffffffffffffffff16815260200190815260200160002060020160149054906101000a900460ff166007811115611f5457fe5b036006811115611f6057fe5b6006600083815260200190815260200160002060080160146101000a81548160ff02191690836006811115611f9157fe5b021790555060046007811115611fa357fe5b600160003373ffffffffffffffffffffffffffffffffffffffff1673ffffffffffffffffffffffffffffffffffffffff16815260200190815260200160002060020160149054906101000a900460ff166007811115611ffe57fe5b1415612249576006600082815260200190815260200160002060060160009054906101000a900473ffffffffffffffffffffffffffffffffffffffff1673ffffffffffffffffffffffffffffffffffffffff163373ffffffffffffffffffffffffffffffffffffffff161415156120dd576040517f08c379a00000000000000000000000000000000000000000000000000000000081526004018080602001828103825260178152602001807f57686f6c6573616c657220697320646966666572656e7400000000000000000081525060200191505060405180910390fd5b600860003373ffffffffffffffffffffffffffffffffffffffff1673ffffffffffffffffffffffffffffffffffffffff1681526020019081526020016000208190806001815401808255809150509060018203906000526020600020016000909192909190915055506006600082815260200190815260200160002060040160009054906101000a900473ffffffffffffffffffffffffffffffffffffffff1673ffffffffffffffffffffffffffffffffffffffff166006600083815260200190815260200160002060050160009054906101000a900473ffffffffffffffffffffffffffffffffffffffff1673ffffffffffffffffffffffffffffffffffffffff16827f7478eec01e702b6b7f202eb1c19675e24ae1eebb6c87e1ff6574e166d5f43cdb33604051808273ffffffffffffffffffffffffffffffffffffffff1673ffffffffffffffffffffffffffffffffffffffff16815260200191505060405180910390a46126ab565b6005600781111561225657fe5b600160003373ffffffffffffffffffffffffffffffffffffffff1673ffffffffffffffffffffffffffffffffffffffff16815260200190815260200160002060020160149054906101000a900460ff1660078111156122b157fe5b14156126aa576006600082815260200190815260200160002060070160009054906101000a900473ffffffffffffffffffffffffffffffffffffffff1673ffffffffffffffffffffffffffffffffffffffff163373ffffffffffffffffffffffffffffffffffffffff16141515612390576040517f08c379a00000000000000000000000000000000000000000000000000000000081526004018080602001828103825260188152602001807f446973747269627574657220697320646966666572656e74000000000000000081525060200191505060405180910390fd5b600073ffffffffffffffffffffffffffffffffffffffff166006600083815260200190815260200160002060060160009054906101000a900473ffffffffffffffffffffffffffffffffffffffff1673ffffffffffffffffffffffffffffffffffffffff161415156125415760028081111561240857fe5b6009600083815260200190815260200160002060030160146101000a81548160ff0219169083600281111561243957fe5b02179055506009600082815260200190815260200160002060020160009054906101000a900473ffffffffffffffffffffffffffffffffffffffff1673ffffffffffffffffffffffffffffffffffffffff166009600083815260200190815260200160002060010160009054906101000a900473ffffffffffffffffffffffffffffffffffffffff1673ffffffffffffffffffffffffffffffffffffffff16827f7478eec01e702b6b7f202eb1c19675e24ae1eebb6c87e1ff6574e166d5f43cdb33604051808273ffffffffffffffffffffffffffffffffffffffff1673ffffffffffffffffffffffffffffffffffffffff16815260200191505060405180910390a4612640565b6006600082815260200190815260200160002060040160009054906101000a900473ffffffffffffffffffffffffffffffffffffffff1673ffffffffffffffffffffffffffffffffffffffff166006600083815260200190815260200160002060050160009054906101000a900473ffffffffffffffffffffffffffffffffffffffff1673ffffffffffffffffffffffffffffffffffffffff16827f7478eec01e702b6b7f202eb1c19675e24ae1eebb6c87e1ff6574e166d5f43cdb33604051808273ffffffffffffffffffffffffffffffffffffffff1673ffffffffffffffffffffffffffffffffffffffff16815260200191505060405180910390a45b600a60003373ffffffffffffffffffffffffffffffffffffffff1673ffffffffffffffffffffffffffffffffffffffff1681526020019081526020016000208190806001815401808255809150509060018203906000526020600020016000909192909190915055505b5b50565b6000600460078111156126bd57fe5b600160003373ffffffffffffffffffffffffffffffffffffffff1673ffffffffffffffffffffffffffffffffffffffff16815260200190815260200160002060020160149054906101000a900460ff16600781111561271857fe5b1415156127d9576040517f08c379a00000000000000000000000000000000000000000000000000000000081526004018080602001828103825260428152602001807f4f6e6c792057686f6c6573616c6572206f722063757272656e74206f776e657281526020017f206f66207061636b6167652063616e2063616c6c20746869732066756e63746981526020017f6f6e00000000000000000000000000000000000000000000000000000000000081525060600191505060405180910390fd5b600860003373ffffffffffffffffffffffffffffffffffffffff1673ffffffffffffffffffffffffffffffffffffffff1681526020019081526020016000208281548110151561282557fe5b90600052602060002001549050919050565b60006006600083815260200190815260200160002060080160149054906101000a900460ff16600681111561286857fe5b9050919050565b6002600781111561287c57fe5b600160003373ffffffffffffffffffffffffffffffffffffffff1673ffffffffffffffffffffffffffffffffffffffff16815260200190815260200160002060020160149054906101000a900460ff1660078111156128d757fe5b141515612972576040517f08c379a00000000000000000000000000000000000000000000000000000000081526004018080602001828103825260278152602001807f4f6e6c79205472616e73706f727465722063616e2063616c6c2074686973206681526020017f756e6374696f6e0000000000000000000000000000000000000000000000000081525060400191505060405180910390fd5b6000821115156129ea576040517f08c379a000000000000000000000000000000000000000000000000000000000815260040180806020018281038252601f8152602001807f5472616e73706f727465722054797065206d75737420626520646566696e650081525060200191505060405180910390fd5b6001821415612bb9576003600084815260200190815260200160002060050160009054906101000a900473ffffffffffffffffffffffffffffffffffffffff1673ffffffffffffffffffffffffffffffffffffffff163373ffffffffffffffffffffffffffffffffffffffff16141515612acc576040517f08c379a00000000000000000000000000000000000000000000000000000000081526004018080602001828103825260198152602001807f5472616e73706f72746572206973206f7468657220757365720000000000000081525060200191505060405180910390fd5b60016002811115612ad957fe5b6003600085815260200190815260200160002060070160146101000a81548160ff02191690836002811115612b0a57fe5b02179055506003600084815260200190815260200160002060060160009054906101000a900473ffffffffffffffffffffffffffffffffffffffff1673ffffffffffffffffffffffffffffffffffffffff163373ffffffffffffffffffffffffffffffffffffffff16847f064fe04394fef40d84544d70823d9be8bbb02f4bbb5c0612f20be8159aabaac6600180604051808381526020018281526020019250505060405180910390a461329f565b6002821415612ebf576006600084815260200190815260200160002060040160009054906101000a900473ffffffffffffffffffffffffffffffffffffffff1673ffffffffffffffffffffffffffffffffffffffff163373ffffffffffffffffffffffffffffffffffffffff16141515612c9b576040517f08c379a00000000000000000000000000000000000000000000000000000000081526004018080602001828103825260198152602001807f5472616e73706f72746572206973206f7468657220757365720000000000000081525060200191505060405180910390fd5b60008114151515612d14576040517f08c379a000000000000000000000000000000000000000000000000000000000815260040180806020018281038252601c8152602001807f52656365697665722054797065206d75737420626520646566696e650000000081525060200191505060405180910390fd5b806006811115612d2057fe5b6006600085815260200190815260200160002060080160146101000a81548160ff02191690836006811115612d5157fe5b02179055506001811415612e0a576006600084815260200190815260200160002060060160009054906101000a900473ffffffffffffffffffffffffffffffffffffffff1673ffffffffffffffffffffffffffffffffffffffff163373ffffffffffffffffffffffffffffffffffffffff16847f064fe04394fef40d84544d70823d9be8bbb02f4bbb5c0612f20be8159aabaac660026001604051808381526020018281526020019250505060405180910390a4612eba565b6002811415612eb9576006600084815260200190815260200160002060050160009054906101000a900473ffffffffffffffffffffffffffffffffffffffff1673ffffffffffffffffffffffffffffffffffffffff163373ffffffffffffffffffffffffffffffffffffffff16847f064fe04394fef40d84544d70823d9be8bbb02f4bbb5c0612f20be8159aabaac6600280604051808381526020018281526020019250505060405180910390a45b5b61329e565b600382141561308e576009600084815260200190815260200160002060020160009054906101000a900473ffffffffffffffffffffffffffffffffffffffff1673ffffffffffffffffffffffffffffffffffffffff163373ffffffffffffffffffffffffffffffffffffffff16141515612fa1576040517f08c379a00000000000000000000000000000000000000000000000000000000081526004018080602001828103825260198152602001807f5472616e73706f72746572206973206f7468657220757365720000000000000081525060200191505060405180910390fd5b60016002811115612fae57fe5b6009600085815260200190815260200160002060030160146101000a81548160ff02191690836002811115612fdf57fe5b02179055506009600084815260200190815260200160002060030160009054906101000a900473ffffffffffffffffffffffffffffffffffffffff1673ffffffffffffffffffffffffffffffffffffffff163373ffffffffffffffffffffffffffffffffffffffff16847f064fe04394fef40d84544d70823d9be8bbb02f4bbb5c0612f20be8159aabaac6600180604051808381526020018281526020019250505060405180910390a461329d565b600482141561329c57600b600084815260200190815260200160002060010160009054906101000a900473ffffffffffffffffffffffffffffffffffffffff1673ffffffffffffffffffffffffffffffffffffffff163373ffffffffffffffffffffffffffffffffffffffff16141515613170576040517f08c379a00000000000000000000000000000000000000000000000000000000081526004018080602001828103825260198152602001807f5472616e73706f72746572206973206f7468657220757365720000000000000081525060200191505060405180910390fd5b6001600281111561317d57fe5b600b600085815260200190815260200160002060030160146101000a81548160ff021916908360028111156131ae57fe5b0217905550600560068111156131c057fe5b6006600085815260200190815260200160002060080160146101000a81548160ff021916908360068111156131f157fe5b0217905550600b600084815260200190815260200160002060020160009054906101000a900473ffffffffffffffffffffffffffffffffffffffff1673ffffffffffffffffffffffffffffffffffffffff163373ffffffffffffffffffffffffffffffffffffffff16847f064fe04394fef40d84544d70823d9be8bbb02f4bbb5c0612f20be8159aabaac6600180604051808381526020018281526020019250505060405180910390a45b5b5b5b505050565b6000809054906101000a900473ffffffffffffffffffffffffffffffffffffffff1673ffffffffffffffffffffffffffffffffffffffff163373ffffffffffffffffffffffffffffffffffffffff1614151561338e576040517f08c379a00000000000000000000000000000000000000000000000000000000081526004018080602001828103825260228152602001807f4f6e6c79206f776e65722063616e2063616c6c20746869732066756e6374696f81526020017f6e2e00000000000000000000000000000000000000000000000000000000000081525060400191505060405180910390fd5b6000600781111561339b57fe5b600160008373ffffffffffffffffffffffffffffffffffffffff1673ffffffffffffffffffffffffffffffffffffffff16815260200190815260200160002060020160149054906101000a900460ff1660078111156133f657fe5b1415151561346c576040517f08c379a00000000000000000000000000000000000000000000000000000000081526004018080602001828103825260138152602001807f55736572206e6f7420726567697374657265640000000000000000000000000081525060200191505060405180910390fd5b8073ffffffffffffffffffffffffffffffffffffffff167fb5f04dfc1ccfefb366c4dc7a23670362462e0a415afb89d8cba1fb657e264c96600160008473ffffffffffffffffffffffffffffffffffffffff1673ffffffffffffffffffffffffffffffffffffffff16815260200190815260200160002060000154600160008573ffffffffffffffffffffffffffffffffffffffff1673ffffffffffffffffffffffffffffffffffffffff16815260200190815260200160002060020160149054906101000a900460ff16600781111561354257fe5b604051808381526020018281526020019250505060405180910390a260078081111561356a57fe5b600160008373ffffffffffffffffffffffffffffffffffffffff1673ffffffffffffffffffffffffffffffffffffffff16815260200190815260200160002060020160146101000a81548160ff021916908360078111156135c757fe5b021790555050565b6000600360078111156135de57fe5b600160003373ffffffffffffffffffffffffffffffffffffffff1673ffffffffffffffffffffffffffffffffffffffff16815260200190815260200160002060020160149054906101000a900460ff16600781111561363957fe5b1415156136d4576040517f08c379a00000000000000000000000000000000000000000000000000000000081526004018080602001828103825260288152602001807f4f6e6c79206d616e7566616374757265722063616e2063616c6c20746869732081526020017f66756e6374696f6e00000000000000000000000000000000000000000000000081525060400191505060405180910390fd5b600560003373ffffffffffffffffffffffffffffffffffffffff1673ffffffffffffffffffffffffffffffffffffffff1681526020019081526020016000208281548110151561372057fe5b90600052602060002001549050919050565b6000809054906101000a900473ffffffffffffffffffffffffffffffffffffffff1673ffffffffffffffffffffffffffffffffffffffff163373ffffffffffffffffffffffffffffffffffffffff1614151561381c576040517f08c379a00000000000000000000000000000000000000000000000000000000081526004018080602001828103825260228152602001807f4f6e6c79206f776e65722063616e2063616c6c20746869732066756e6374696f81526020017f6e2e00000000000000000000000000000000000000000000000000000000000081525060400191505060405180910390fd5b6000600781111561382957fe5b600160008673ffffffffffffffffffffffffffffffffffffffff1673ffffffffffffffffffffffffffffffffffffffff16815260200190815260200160002060020160149054906101000a900460ff16600781111561388457fe5b1415156138f9576040517f08c379a00000000000000000000000000000000000000000000000000000000081526004018080602001828103825260178152602001807f5573657220416c7265616479207265676973746572656400000000000000000081525060200191505060405180910390fd5b82600160008673ffffffffffffffffffffffffffffffffffffffff1673ffffffffffffffffffffffffffffffffffffffff1681526020019081526020016000206000018190555081600160008673ffffffffffffffffffffffffffffffffffffffff1673ffffffffffffffffffffffffffffffffffffffff1681526020019081526020016000206001018190555083600160008673ffffffffffffffffffffffffffffffffffffffff1673ffffffffffffffffffffffffffffffffffffffff16815260200190815260200160002060020160006101000a81548173ffffffffffffffffffffffffffffffffffffffff021916908373ffffffffffffffffffffffffffffffffffffffff160217905550806007811115613a1457fe5b600160008673ffffffffffffffffffffffffffffffffffffffff1673ffffffffffffffffffffffffffffffffffffffff16815260200190815260200160002060020160146101000a81548160ff02191690836007811115613a7157fe5b021790555060028490806001815401808255809150509060018203906000526020600020016000909192909190916101000a81548173ffffffffffffffffffffffffffffffffffffffff021916908373ffffffffffffffffffffffffffffffffffffffff160217905550508373ffffffffffffffffffffffffffffffffffffffff167f33a7170f028b1e4f5ba321064a00ed820856a920c7f9c6636fbcf385427b1b0f846040518082815260200191505060405180910390a250505050565b600060016007811115613b3f57fe5b600160003373ffffffffffffffffffffffffffffffffffffffff1673ffffffffffffffffffffffffffffffffffffffff16815260200190815260200160002060020160149054906101000a900460ff166007811115613b9a57fe5b141515613c35576040517f08c379a00000000000000000000000000000000000000000000000000000000081526004018080602001828103825260258152602001807f4f6e6c7920537570706c6965722043616e2063616c6c20746869732066756e6381526020017f74696f6e2000000000000000000000000000000000000000000000000000000081525060400191505060405180910390fd5b600460003373ffffffffffffffffffffffffffffffffffffffff1673ffffffffffffffffffffffffffffffffffffffff16815260200190815260200160002080549050905090565b600060066007811115613c8c57fe5b600160003373ffffffffffffffffffffffffffffffffffffffff1673ffffffffffffffffffffffffffffffffffffffff16815260200190815260200160002060020160149054906101000a900460ff166007811115613ce757fe5b141515613da8576040517f08c379a00000000000000000000000000000000000000000000000000000000081526004018080602001828103825260428152602001807f4f6e6c792057686f6c6573616c6572206f722063757272656e74206f776e657281526020017f206f66207061636b6167652063616e2063616c6c20746869732066756e63746981526020017f6f6e00000000000000000000000000000000000000000000000000000000000081525060600191505060405180910390fd5b600c60003373ffffffffffffffffffffffffffffffffffffffff1673ffffffffffffffffffffffffffffffffffffffff16815260200190815260200160002080549050905090565b6000600280549050905090565b6000809054906101000a900473ffffffffffffffffffffffffffffffffffffffff1681565b60066007811115613e2f57fe5b600160003373ffffffffffffffffffffffffffffffffffffffff1673ffffffffffffffffffffffffffffffffffffffff16815260200190815260200160002060020160149054906101000a900460ff166007811115613e8a57fe5b148015613ef857506006600082815260200190815260200160002060080160009054906101000a900473ffffffffffffffffffffffffffffffffffffffff1673ffffffffffffffffffffffffffffffffffffffff163373ffffffffffffffffffffffffffffffffffffffff16145b1515613f92576040517f08c379a000000000000000000000000000000000000000000000000000000000815260040180806020018281038252603e8152602001807f4f6e6c7920506861726d61206f722063757272656e74206f776e6572206f662081526020017f7061636b6167652063616e2063616c6c20746869732066756e6374696f6e000081525060400191505060405180910390fd5b600280811115613f9e57fe5b600b600083815260200190815260200160002060030160146101000a81548160ff02191690836002811115613fcf57fe5b0217905550600680811115613fe057fe5b6006600083815260200190815260200160002060080160146101000a81548160ff0219169083600681111561401157fe5b0217905550600c60003373ffffffffffffffffffffffffffffffffffffffff1673ffffffffffffffffffffffffffffffffffffffff1681526020019081526020016000208190806001815401808255809150509060018203906000526020600020016000909192909190915055506001600481111561408c57fe5b600d600083815260200190815260200160002060006101000a81548160ff021916908360048111156140ba57fe5b0217905550600b600082815260200190815260200160002060030160009054906101000a900473ffffffffffffffffffffffffffffffffffffffff1673ffffffffffffffffffffffffffffffffffffffff16600b600083815260200190815260200160002060010160009054906101000a900473ffffffffffffffffffffffffffffffffffffffff1673ffffffffffffffffffffffffffffffffffffffff16827fd2cdcf69957c14edd1b02f1842e1b16ec6d6e72a7f2885ebb4377b5fec9740dd33604051808273ffffffffffffffffffffffffffffffffffffffff1673ffffffffffffffffffffffffffffffffffffffff16815260200191505060405180910390a450565b6000806000806000600660008781526020019081526020016000206001015460066000888152602001908152602001600020600201546006600089815260200190815260200160002060030154600660008a815260200190815260200160002060040160009054906101000a900473ffffffffffffffffffffffffffffffffffffffff16600660008b815260200190815260200160002060050160009054906101000a900473ffffffffffffffffffffffffffffffffffffffff169450945094509450945091939590929450565b6005600781111561429b57fe5b600160003373ffffffffffffffffffffffffffffffffffffffff1673ffffffffffffffffffffffffffffffffffffffff16815260200190815260200160002060020160149054906101000a900460ff1660078111156142f657fe5b14801561436457506006600084815260200190815260200160002060070160009054906101000a900473ffffffffffffffffffffffffffffffffffffffff1673ffffffffffffffffffffffffffffffffffffffff163373ffffffffffffffffffffffffffffffffffffffff16145b1515614424576040517f08c379a00000000000000000000000000000000000000000000000000000000081526004018080602001828103825260438152602001807f4f6e6c79204469737472696275746572206f722063757272656e74206f776e6581526020017f72206f66207061636b6167652063616e2063616c6c20746869732066756e637481526020017f696f6e000000000000000000000000000000000000000000000000000000000081525060600191505060405180910390fd5b82600b60008581526020019081526020016000206000018190555081600b600085815260200190815260200160002060010160006101000a81548173ffffffffffffffffffffffffffffffffffffffff021916908373ffffffffffffffffffffffffffffffffffffffff16021790555080600b600085815260200190815260200160002060020160006101000a81548173ffffffffffffffffffffffffffffffffffffffff021916908373ffffffffffffffffffffffffffffffffffffffff160217905550600060028111156144f657fe5b600b600085815260200190815260200160002060030160146101000a81548160ff0219169083600281111561452757fe5b021790555033600b600085815260200190815260200160002060030160006101000a81548173ffffffffffffffffffffffffffffffffffffffff021916908373ffffffffffffffffffffffffffffffffffffffff160217905550806006600085815260200190815260200160002060080160006101000a81548173ffffffffffffffffffffffffffffffffffffffff021916908373ffffffffffffffffffffffffffffffffffffffff1602179055508073ffffffffffffffffffffffffffffffffffffffff168273ffffffffffffffffffffffffffffffffffffffff16847f441f5e2afdb3b50e71754e00bf975ec5511a6e68962f37e3b0bcd28678b2853933604051808273ffffffffffffffffffffffffffffffffffffffff1673ffffffffffffffffffffffffffffffffffffffff16815260200191505060405180910390a4505050565b6003600781111561467a57fe5b600160003373ffffffffffffffffffffffffffffffffffffffff1673ffffffffffffffffffffffffffffffffffffffff16815260200190815260200160002060020160149054906101000a900460ff1660078111156146d557fe5b141515614770576040517f08c379a00000000000000000000000000000000000000000000000000000000081526004018080602001828103825260288152602001807f4f6e6c79206d616e7566616374757265722063616e2063616c6c20746869732081526020017f66756e6374696f6e00000000000000000000000000000000000000000000000081525060400191505060405180910390fd5b8060036000838152602001908152602001600020600001541415156147fd576040517f08c379a00000000000000000000000000000000000000000000000000000000081526004018080602001828103825260168152602001807f50726f6475637420646f6573206e6f742065786973740000000000000000000081525060200191505060405180910390fd5b6001600281111561480a57fe5b600281111561481557fe5b6003600083815260200190815260200160002060070160149054906101000a900460ff16600281111561484457fe5b1415156148b9576040517f08c379a00000000000000000000000000000000000000000000000000000000081526004018080602001828103825260198152602001807f50726f64756374206e6f74207069636b6564207570207965740000000000000081525060200191505060405180910390fd5b6003600082815260200190815260200160002060060160009054906101000a900473ffffffffffffffffffffffffffffffffffffffff1673ffffffffffffffffffffffffffffffffffffffff163373ffffffffffffffffffffffffffffffffffffffff16141515614992576040517f08c379a00000000000000000000000000000000000000000000000000000000081526004018080602001828103825260198152602001807f4d616e75666163747572657220697320646966666572656e740000000000000081525060200191505060405180910390fd5b60028081111561499e57fe5b6003600083815260200190815260200160002060070160146101000a81548160ff021916908360028111156149cf57fe5b0217905550600560003373ffffffffffffffffffffffffffffffffffffffff1673ffffffffffffffffffffffffffffffffffffffff1681526020019081526020016000208190806001815401808255809150509060018203906000526020600020016000909192909190915055506003600082815260200190815260200160002060070160009054906101000a900473ffffffffffffffffffffffffffffffffffffffff1673ffffffffffffffffffffffffffffffffffffffff166003600083815260200190815260200160002060050160009054906101000a900473ffffffffffffffffffffffffffffffffffffffff1673ffffffffffffffffffffffffffffffffffffffff16827f5ece0855ece9d3bef8346ff1fe04663cc7fb712acc152c6f14a6e19dad7fe93633604051808273ffffffffffffffffffffffffffffffffffffffff1673ffffffffffffffffffffffffffffffffffffffff16815260200191505060405180910390a450565b60008060008060008060006003600089815260200190815260200160002060010154600360008a815260200190815260200160002060020154600360008b815260200190815260200160002060030154600360008c815260200190815260200160002060040154600360008d815260200190815260200160002060050160009054906101000a900473ffffffffffffffffffffffffffffffffffffffff16600360008e815260200190815260200160002060060160009054906101000a900473ffffffffffffffffffffffffffffffffffffffff16600360008f815260200190815260200160002060070160009054906101000a900473ffffffffffffffffffffffffffffffffffffffff169650965096509650965096509650919395979092949650565b600060066007811115614c7257fe5b600160003373ffffffffffffffffffffffffffffffffffffffff1673ffffffffffffffffffffffffffffffffffffffff16815260200190815260200160002060020160149054906101000a900460ff166007811115614ccd57fe5b141515614d8e576040517f08c379a00000000000000000000000000000000000000000000000000000000081526004018080602001828103825260428152602001807f4f6e6c792057686f6c6573616c6572206f722063757272656e74206f776e657281526020017f206f66207061636b6167652063616e2063616c6c20746869732066756e63746981526020017f6f6e00000000000000000000000000000000000000000000000000000000000081525060600191505060405180910390fd5b600c60003373ffffffffffffffffffffffffffffffffffffffff1673ffffffffffffffffffffffffffffffffffffffff16815260200190815260200160002082815481101515614dda57fe5b90600052602060002001549050919050565b600060036007811115614dfb57fe5b600160003373ffffffffffffffffffffffffffffffffffffffff1673ffffffffffffffffffffffffffffffffffffffff16815260200190815260200160002060020160149054906101000a900460ff166007811115614e5657fe5b141515614ef1576040517f08c379a00000000000000000000000000000000000000000000000000000000081526004018080602001828103825260288152602001807f4f6e6c79206d616e7566616374757265722063616e2063616c6c20746869732081526020017f66756e6374696f6e00000000000000000000000000000000000000000000000081525060400191505060405180910390fd5b600560003373ffffffffffffffffffffffffffffffffffffffff1673ffffffffffffffffffffffffffffffffffffffff16815260200190815260200160002080549050905090565b6000600d600083815260200190815260200160002060009054906101000a900460ff166004811115614f6757fe5b9050919050565b60036007811115614f7b57fe5b600160003373ffffffffffffffffffffffffffffffffffffffff1673ffffffffffffffffffffffffffffffffffffffff16815260200190815260200160002060020160149054906101000a900460ff166007811115614fd657fe5b141515615071576040517f08c379a00000000000000000000000000000000000000000000000000000000081526004018080602001828103825260288152602001807f4f6e6c79206d616e7566616374757265722063616e2063616c6c20746869732081526020017f66756e6374696f6e00000000000000000000000000000000000000000000000081525060400191505060405180910390fd5b600081141515156150ea576040517f08c379a000000000000000000000000000000000000000000000000000000000815260040180806020018281038252601c8152602001807f52656365697665722054797065206d75737420626520646566696e650000000081525060200191505060405180910390fd5b6000334386604051602001808473ffffffffffffffffffffffffffffffffffffffff1673ffffffffffffffffffffffffffffffffffffffff166c010000000000000000000000000281526014018381526020018281526020019350505050604051602081830303815290604052805190602001209050806006600083815260200190815260200160002060000181905550866006600083815260200190815260200160002060010181905550856006600083815260200190815260200160002060020181905550846006600083815260200190815260200160002060030181905550836006600083815260200190815260200160002060040160006101000a81548173ffffffffffffffffffffffffffffffffffffffff021916908373ffffffffffffffffffffffffffffffffffffffff160217905550336006600083815260200190815260200160002060050160006101000a81548173ffffffffffffffffffffffffffffffffffffffff021916908373ffffffffffffffffffffffffffffffffffffffff1602179055506000600681111561528357fe5b6006600083815260200190815260200160002060080160146101000a81548160ff021916908360068111156152b457fe5b0217905550600182141561531c57826006600083815260200190815260200160002060060160006101000a81548173ffffffffffffffffffffffffffffffffffffffff021916908373ffffffffffffffffffffffffffffffffffffffff16021790555061537c565b600282141561537b57826006600083815260200190815260200160002060070160006101000a81548173ffffffffffffffffffffffffffffffffffffffff021916908373ffffffffffffffffffffffffffffffffffffffff1602179055505b5b600760003373ffffffffffffffffffffffffffffffffffffffff1673ffffffffffffffffffffffffffffffffffffffff1681526020019081526020016000208190806001815401808255809150509060018203906000526020600020016000909192909190915055508273ffffffffffffffffffffffffffffffffffffffff163373ffffffffffffffffffffffffffffffffffffffff16827f3b6f991d2aa45abbc101b22db208a600efaf11748c710c51aaab7b828d1a991687604051808273ffffffffffffffffffffffffffffffffffffffff1673ffffffffffffffffffffffffffffffffffffffff16815260200191505060405180910390a450505050505050565b6006600781111561548d57fe5b600160003373ffffffffffffffffffffffffffffffffffffffff1673ffffffffffffffffffffffffffffffffffffffff16815260200190815260200160002060020160149054906101000a900460ff1660078111156154e857fe5b14801561555657506006600083815260200190815260200160002060080160009054906101000a900473ffffffffffffffffffffffffffffffffffffffff1673ffffffffffffffffffffffffffffffffffffffff163373ffffffffffffffffffffffffffffffffffffffff16145b15156155f0576040517f08c379a000000000000000000000000000000000000000000000000000000000815260040180806020018281038252603e8152602001807f4f6e6c7920506861726d61206f722063757272656e74206f776e6572206f662081526020017f7061636b6167652063616e2063616c6c20746869732066756e6374696f6e000081525060400191505060405180910390fd5b600160048111156155fd57fe5b600481111561560857fe5b600d600084815260200190815260200160002060009054906101000a900460ff16600481111561563457fe5b1415156156a9576040517f08c379a000000000000000000000000000000000000000000000000000000000815260040180806020018281038252601a8152602001807f4d65646963696e65204d75737420626520617420506861726d6100000000000081525060200191505060405180910390fd5b8060048111156156b557fe5b600d600084815260200190815260200160002060006101000a81548160ff021916908360048111156156e357fe5b02179055503373ffffffffffffffffffffffffffffffffffffffff167fe7b14e8a1267505d152402dcb3fe6f7e936a894404546dc49e6bd6dc83d0ab2c8383604051808381526020018281526020019250505060405180910390a25050565b6001600781111561574f57fe5b600160003373ffffffffffffffffffffffffffffffffffffffff1673ffffffffffffffffffffffffffffffffffffffff16815260200190815260200160002060020160149054906101000a900460ff1660078111156157aa57fe5b141515615845576040517f08c379a00000000000000000000000000000000000000000000000000000000081526004018080602001828103825260258152602001807f4f6e6c7920537570706c6965722043616e2063616c6c20746869732066756e6381526020017f74696f6e2000000000000000000000000000000000000000000000000000000081525060400191505060405180910390fd5b6000334385604051602001808473ffffffffffffffffffffffffffffffffffffffff1673ffffffffffffffffffffffffffffffffffffffff166c010000000000000000000000000281526014018381526020018281526020019350505050604051602081830303815290604052805190602001209050806003600083815260200190815260200160002060000181905550866003600083815260200190815260200160002060010181905550856003600083815260200190815260200160002060020181905550846003600083815260200190815260200160002060030181905550836003600083815260200190815260200160002060040181905550826003600083815260200190815260200160002060050160006101000a81548173ffffffffffffffffffffffffffffffffffffffff021916908373ffffffffffffffffffffffffffffffffffffffff160217905550816003600083815260200190815260200160002060060160006101000a81548173ffffffffffffffffffffffffffffffffffffffff021916908373ffffffffffffffffffffffffffffffffffffffff160217905550336003600083815260200190815260200160002060070160006101000a81548173ffffffffffffffffffffffffffffffffffffffff021916908373ffffffffffffffffffffffffffffffffffffffff16021790555060006002811115615a4e57fe5b6003600083815260200190815260200160002060070160146101000a81548160ff02191690836002811115615a7f57fe5b0217905550600460003373ffffffffffffffffffffffffffffffffffffffff1673ffffffffffffffffffffffffffffffffffffffff1681526020019081526020016000208190806001815401808255809150509060018203906000526020600020016000909192909190915055508173ffffffffffffffffffffffffffffffffffffffff163373ffffffffffffffffffffffffffffffffffffffff16827f3526c908ab533632ede64662724d93d6c153d7f743618f475ff994b850de4d8c86604051808273ffffffffffffffffffffffffffffffffffffffff1673ffffffffffffffffffffffffffffffffffffffff16815260200191505060405180910390a450505050505050565b60046007811115615b9557fe5b600160003373ffffffffffffffffffffffffffffffffffffffff1673ffffffffffffffffffffffffffffffffffffffff16815260200190815260200160002060020160149054906101000a900460ff166007811115615bf057fe5b148015615c5e57506006600084815260200190815260200160002060060160009054906101000a900473ffffffffffffffffffffffffffffffffffffffff1673ffffffffffffffffffffffffffffffffffffffff163373ffffffffffffffffffffffffffffffffffffffff16145b1515615d1e576040517f08c379a00000000000000000000000000000000000000000000000000000000081526004018080602001828103825260428152602001807f4f6e6c792057686f6c6573616c6572206f722063757272656e74206f776e657281526020017f206f66207061636b6167652063616e2063616c6c20746869732066756e63746981526020017f6f6e00000000000000000000000000000000000000000000000000000000000081525060600191505060405180910390fd5b826009600085815260200190815260200160002060000181905550816009600085815260200190815260200160002060020160006101000a81548173ffffffffffffffffffffffffffffffffffffffff021916908373ffffffffffffffffffffffffffffffffffffffff160217905550806009600085815260200190815260200160002060030160006101000a81548173ffffffffffffffffffffffffffffffffffffffff021916908373ffffffffffffffffffffffffffffffffffffffff16021790555060006002811115615df057fe5b6009600085815260200190815260200160002060030160146101000a81548160ff02191690836002811115615e2157fe5b0217905550336009600085815260200190815260200160002060010160006101000a81548173ffffffffffffffffffffffffffffffffffffffff021916908373ffffffffffffffffffffffffffffffffffffffff160217905550806006600085815260200190815260200160002060070160006101000a81548173ffffffffffffffffffffffffffffffffffffffff021916908373ffffffffffffffffffffffffffffffffffffffff16021790555060026006811115615edd57fe5b6006600085815260200190815260200160002060080160146101000a81548160ff02191690836006811115615f0e57fe5b02179055508073ffffffffffffffffffffffffffffffffffffffff168273ffffffffffffffffffffffffffffffffffffffff16847ffad615ed1c60bf65312a19f25cdf659c8e809d971b3ef99f1a8354b80fc8fad933604051808273ffffffffffffffffffffffffffffffffffffffff1673ffffffffffffffffffffffffffffffffffffffff16815260200191505060405180910390a450505056fea165627a7a72305820b63fc92e0cded65ea5381d481723535119d079f3d5e61327463ca0e3a3c504550029",
  "source": "pragma solidity >=0.4.25 <0.6.0;\n\ncontract SupplyChain {\n\n    constructor() public {\n        Owner = msg.sender;\n    }\n/********************************************** Owner Section *********************************************/\n    address public Owner;\n    modifier onlyOwner() {\n        require(\n            msg.sender == Owner,\n            \"Only owner can call this function.\"\n        );\n        _;\n    }\n    enum roles {norole, supplier, transporter, manufacturer, wholesaler, distributer, pharma, revoke }\n    \n    event UserRegister(address indexed EthAddress, bytes32 Name);\n    event UserRoleRevoked(address indexed EthAddress, bytes32 Name, uint Role);\n    event UserRoleRessigne(address indexed EthAddress, bytes32 Name, uint Role);\n    \n    function registerUser(\n        address EthAddress, \n        bytes32 Name, \n        bytes32 Location, \n        uint Role\n        ) public \n        onlyOwner \n        {\n        require(UsersDetails[EthAddress].role == roles.norole, \"User Already registered\");\n        UsersDetails[EthAddress].name = Name;\n        UsersDetails[EthAddress].location = Location;\n        UsersDetails[EthAddress].ethAddress = EthAddress;\n        UsersDetails[EthAddress].role = roles(Role);\n        users.push(EthAddress);\n        emit UserRegister(EthAddress, Name);\n    }\n    function revokeRole(address userAddress) public onlyOwner {\n        require(UsersDetails[userAddress].role != roles.norole, \"User not registered\");\n        emit UserRoleRevoked(userAddress, UsersDetails[userAddress].name,uint(UsersDetails[userAddress].role));\n        UsersDetails[userAddress].role = roles(7);\n    }\n    function reassigneRole(address userAddress, uint Role) public onlyOwner {\n        require(UsersDetails[userAddress].role != roles.norole, \"User not registered\");\n        UsersDetails[userAddress].role = roles(Role);\n        emit UserRoleRessigne(userAddress, UsersDetails[userAddress].name,uint(UsersDetails[userAddress].role));\n    }\n/********************************************** User Section **********************************************/\n    struct UserInfo {\n        bytes32 name;\n        bytes32 location;\n        address ethAddress;\n        roles role;\n    }\n\n    mapping(address => UserInfo) UsersDetails;\n    address[] users;\n\n    function getUserInfo(address User) public view returns(\n        bytes32 name,\n        bytes32 location,\n        address ethAddress,\n        roles role\n        ) {\n        return (\n            UsersDetails[User].name,\n            UsersDetails[User].location,\n            UsersDetails[User].ethAddress,\n            UsersDetails[User].role);\n    }\n\n    function getUsersCount() public view returns(uint count){\n        return users.length;\n    }\n\n    function getUserbyIndex(uint index) public view returns(\n        bytes32 name,\n        bytes32 location,\n        address ethAddress,\n        roles role\n        ) {\n        return getUserInfo(users[index]);    \n    }\n/********************************************** Supplier Section ******************************************/\n    enum packageStatus { atcreator, picked, delivered}\n    struct RawProductInfo {\n        bytes32 productid;\n        bytes32 description;\n        bytes32 farmer_name;\n        bytes32 location;\n        uint quantity;\n        address shipper;\n        address receiver;\n        address supplier;\n        packageStatus status;\n        // bytes32 transporter_route;\n        bytes32 packageReceiverDescription;\n    }\n\n    mapping(bytes32 => RawProductInfo) RawProductDetails;\n    mapping(address => bytes32[]) supplierRawProductInfo;\n\n    event RawSupplyInit(\n        bytes32 indexed ProductID, \n        address indexed Supplier, \n        address Shipper, \n        address indexed Receiver\n    );\n\n    function supplyRaw(\n        bytes32 Description, \n        bytes32 FarmerName, \n        bytes32 Location, \n        uint Quantity, \n        address Shipper, \n        address Receiver\n        ) public {\n        require(\n            UsersDetails[msg.sender].role == roles.supplier, \n            \"Only Supplier Can call this function \"\n        );\n        bytes32 pid = keccak256(abi.encodePacked(msg.sender, block.number, Quantity));\n        RawProductDetails[pid].productid = pid;\n        RawProductDetails[pid].description = Description;\n        RawProductDetails[pid].farmer_name = FarmerName;\n        RawProductDetails[pid].location = Location;\n        RawProductDetails[pid].quantity = Quantity;\n        RawProductDetails[pid].shipper = Shipper;\n        RawProductDetails[pid].receiver = Receiver;\n        RawProductDetails[pid].supplier = msg.sender;\n        RawProductDetails[pid].status = packageStatus(0);\n\n        supplierRawProductInfo[msg.sender].push(pid);\n        emit RawSupplyInit(pid, msg.sender, Shipper, Receiver);\n    }\n\n    function getCountOfProducts() public view returns (uint count){\n        require(\n            UsersDetails[msg.sender].role == roles.supplier, \n            \"Only Supplier Can call this function \"\n        );\n        return supplierRawProductInfo[msg.sender].length;\n    }\n\n    function getProductIdByIndex(uint index) public view returns(bytes32 BatchID) {\n        require(\n            UsersDetails[msg.sender].role == roles.supplier, \n            \"Only Supplier Can call this function \"\n        );\n        return supplierRawProductInfo[msg.sender][index];\n    }\n\n    function getSupplyRaw(\n        bytes32 pid\n        ) public\n        view\n        returns(\n            bytes32 description,\n            bytes32 farmer_name,\n            bytes32 location,\n            uint quantity,\n            address shipper,\n            address receiver,\n            address supplier\n        ) {\n        return(\n            RawProductDetails[pid].description,\n            RawProductDetails[pid].farmer_name,\n            RawProductDetails[pid].location,\n            RawProductDetails[pid].quantity,\n            RawProductDetails[pid].shipper,\n            RawProductDetails[pid].receiver,\n            RawProductDetails[pid].supplier\n        );\n    }\n\n    function getStatusOfRawMatrials(\n        bytes32 pid\n    ) public\n    view\n    returns(\n        uint status\n    ) {\n        return uint(RawProductDetails[pid].status);\n    }\n/********************************************** Transporter Section ***************************************/\n    event ShippmentUpdate(\n        bytes32 indexed BatchId, \n        address indexed Shipper, \n        address indexed receiver, \n        uint transportertype, \n        uint status\n    );\n\n    function loadpacakage(bytes32 pid, uint transportertype, uint receivertype) public {\n        require(\n            UsersDetails[msg.sender].role == roles.transporter,\n            \"Only Transporter can call this function\"\n        );\n        require(\n            transportertype > 0,\n            \"Transporter Type must be define\"\n        );\n\n        if(transportertype == 1) {  // Supplier to Manufacturer\n            require(\n                msg.sender == RawProductDetails[pid].shipper,\n                \"Transporter is other user\"\n            );\n            RawProductDetails[pid].status = packageStatus(1);\n            emit ShippmentUpdate(pid, msg.sender, RawProductDetails[pid].receiver,1,1);\n        } else if(transportertype == 2) {   // Manufacturer to Wholesaler OR Manufacturer to Distributer\n            require(\n                msg.sender == MedicineBatchDetails[pid].shipper,\n                \"Transporter is other user\"\n            );\n            require(receivertype != 0,\"Receiver Type must be define\");\n            MedicineBatchDetails[pid].status = medicineStatus(receivertype);\n            if(receivertype == 1){\n                emit ShippmentUpdate(pid, msg.sender, MedicineBatchDetails[pid].wholesaler,2,1);\n            } else if(receivertype == 2){\n                emit ShippmentUpdate(pid, msg.sender, MedicineBatchDetails[pid].manufacturer,2,2);\n            }\n        } else if(transportertype == 3) {   // Wholesaler to Distributer\n            require(\n                msg.sender == MedicineWtoD[pid].shipper,\n                \"Transporter is other user\"\n            );\n            MedicineWtoD[pid].status = packageStatus(1);\n            emit ShippmentUpdate(pid, msg.sender, MedicineWtoD[pid].receiver,1,1);\n        } else if(transportertype == 4) {   // Distrubuter to Pharma\n            require(\n                msg.sender == MedicineDtoR[pid].shipper,\n                \"Transporter is other user\"\n            );\n            MedicineDtoR[pid].status = packageStatus(1);\n            MedicineBatchDetails[pid].status = medicineStatus(5);\n            emit ShippmentUpdate(pid, msg.sender, MedicineDtoR[pid].receiver,1,1);\n        }\n    }\n/********************************************** Manufacturer Section **************************************/\n    mapping(address => bytes32[]) RawProductAtManufacturer;\n    // mapping(address => mapping(bytes32 => RawProductInfo)) RawProductDetailsAtManufacturer;\n\n    enum medicineStatus { atcreator, picked4W, picked4D, deliveredatW, deliveredatD, picked4P, deliveredatP}\n    \n    event RawProductReceive(\n        bytes32 indexed BatchID, \n        address indexed shipper, \n        address indexed supplier,\n        address receiver\n    );\n\n    function rawProductReceived(bytes32 pid) public {\n        require(\n            UsersDetails[msg.sender].role == roles.manufacturer,\n            \"Only manufacturer can call this function\"\n        );\n        require(\n            RawProductDetails[pid].productid == pid,\n            \"Product does not exist\"\n        );\n        require(\n            RawProductDetails[pid].status == packageStatus(1),\n            \"Product not picked up yet\"\n        );\n        require(\n            msg.sender == RawProductDetails[pid].receiver,\n            \"Manufacturer is different\"\n        );\n        RawProductDetails[pid].status = packageStatus(2);\n        // RawProductDetailsAtManufacturer[msg.sender][pid] = RawProductDetails[pid];\n\n        RawProductAtManufacturer[msg.sender].push(pid);\n        emit RawProductReceive(pid,RawProductDetails[pid].shipper, RawProductDetails[pid].supplier, msg.sender);\n    }\n\n    struct MedicineBatch{\n        bytes32 batchid;\n        bytes32 description;\n        bytes32 rawmatriales;\n        uint quantity;\n        address shipper;\n        address manufacturer;\n        address wholesaler;\n        address distributer;\n        address pharma;\n        medicineStatus status;\n    }\n\n    mapping(bytes32 => MedicineBatch) MedicineBatchDetails;\n    mapping(address => bytes32[]) ManufacturerMedicineBatches;\n\n    event MadicineNewBatch(\n        bytes32 indexed BatchId, \n        address indexed Manufacturer, \n        address shipper, \n        address indexed Reciever\n    );\n\n    function newBatch(\n        bytes32 Description,\n        bytes32 RawMatrials,\n        uint Quantity,\n        address Shipper,\n        address Receiver,\n        uint receivertype\n        ) public {\n    \n        require(\n            UsersDetails[msg.sender].role == roles.manufacturer,\n            \"Only manufacturer can call this function\"\n        );\n        require(\n            receivertype != 0,\n            \"Receiver Type must be define\"\n        );\n        bytes32 batchID = keccak256(abi.encodePacked(msg.sender, block.number, Quantity));\n        MedicineBatchDetails[batchID].batchid = batchID;\n        MedicineBatchDetails[batchID].description = Description;\n        MedicineBatchDetails[batchID].rawmatriales = RawMatrials;\n        MedicineBatchDetails[batchID].quantity = Quantity;\n        MedicineBatchDetails[batchID].shipper = Shipper;\n        MedicineBatchDetails[batchID].manufacturer = msg.sender;\n        MedicineBatchDetails[batchID].status = medicineStatus(0);\n        if(receivertype == 1){\n            MedicineBatchDetails[batchID].wholesaler = Receiver;\n        } else if(receivertype == 2){\n            MedicineBatchDetails[batchID].distributer = Receiver;\n        }\n\n        ManufacturerMedicineBatches[msg.sender].push(batchID);\n\n        emit MadicineNewBatch(batchID, msg.sender, Shipper, Receiver);\n    }\n\n    function getMadicineBatchCount() public view returns (uint count){\n        require(\n            UsersDetails[msg.sender].role == roles.manufacturer,\n            \"Only manufacturer can call this function\"\n        );\n        return RawProductAtManufacturer[msg.sender].length;\n    }\n\n    function getBatchIDByIndex(uint index) public view returns(bytes32 BatchID){\n        require(\n            UsersDetails[msg.sender].role == roles.manufacturer,\n            \"Only manufacturer can call this function\"\n        );\n        return RawProductAtManufacturer[msg.sender][index];\n    }\n\n    function getMadicineInfo(\n        bytes32 batchID\n    ) public \n    view\n    returns(\n        bytes32 Description,\n        bytes32 RawMatrials,\n        uint Quantity,\n        address Shipper,\n        address Manufacturer\n    ) {\n        return (\n            MedicineBatchDetails[batchID].description,\n            MedicineBatchDetails[batchID].rawmatriales,\n            MedicineBatchDetails[batchID].quantity,\n            MedicineBatchDetails[batchID].shipper,\n            MedicineBatchDetails[batchID].manufacturer\n        );\n    }\n\n    function getWDP(\n        bytes32 batchID\n    ) public\n    view\n    returns(\n        address Wholesaler,\n        address Distributer,\n        address Pharma\n    ) {\n        return (\n            MedicineBatchDetails[batchID].wholesaler,\n            MedicineBatchDetails[batchID].distributer,\n            MedicineBatchDetails[batchID].pharma\n        );\n    }\n\n    function getMedicineStatus(\n        bytes32 BatchID\n    ) public\n    view\n    returns (\n        uint status\n    ){\n        return uint(MedicineBatchDetails[BatchID].status);\n    }\n/********************************************** Wholesaler Section ****************************************/\n\n    mapping(address => bytes32[]) MedicineBatchAtWholesaler;\n\n    event MedicineReceive(\n        bytes32 indexed BathcID, \n        address indexed Sender,\n        address indexed Shipper,\n        address Receiver\n    );\n\n    function medicineReceived(bytes32 pid) public {\n        require(\n            UsersDetails[msg.sender].role == roles.wholesaler || UsersDetails[msg.sender].role == roles.distributer,\n            \"Only Wholesaler and Distributer can call this function\"\n        );\n        require(\n            MedicineBatchDetails[pid].batchid == pid,\n            \"Product does not exist\"\n        );\n        require(\n            uint(MedicineBatchDetails[pid].status) >= 1,\n            \"Product not picked up yet\"\n        );\n        \n        MedicineBatchDetails[pid].status = medicineStatus(uint(UsersDetails[msg.sender].role)-1);\n        if(UsersDetails[msg.sender].role == roles.wholesaler) {\n            require(\n                msg.sender == MedicineBatchDetails[pid].wholesaler,\n                \"Wholesaler is different\"\n            );\n            MedicineBatchAtWholesaler[msg.sender].push(pid);\n            emit MedicineReceive(pid, MedicineBatchDetails[pid].manufacturer, MedicineBatchDetails[pid].shipper,msg.sender);\n        }else if(UsersDetails[msg.sender].role == roles.distributer){\n            require(\n                msg.sender == MedicineBatchDetails[pid].distributer,\n                \"Distributer is different\"\n            );\n            if(MedicineBatchDetails[pid].wholesaler!=address(0)){\n                MedicineWtoD[pid].status = packageStatus(2);\n                emit MedicineReceive(pid, MedicineWtoD[pid].sender, MedicineWtoD[pid].shipper,msg.sender);\n            }else{\n                emit MedicineReceive(pid, MedicineBatchDetails[pid].manufacturer, MedicineBatchDetails[pid].shipper,msg.sender);\n            }\n            MedicineBatchAtDistributer[msg.sender].push(pid);\n        }\n        \n    }\n\n    struct Medicine_WtoD{\n        bytes32 batchid;\n        address sender;\n        address shipper;\n        address receiver;\n        packageStatus status;\n    }\n    mapping(bytes32 => Medicine_WtoD) MedicineWtoD;\n\n    event MedicineTransportWtoD(\n        bytes32 indexed BatchID,\n        address indexed Shipper,\n        address indexed Receiver,\n        address Sender\n    );\n\n    function shipMedicineWtoD(\n        bytes32 BatchID,\n        address Shipper,\n        address Receiver\n    ) public \n    {\n        require(\n            UsersDetails[msg.sender].role == roles.wholesaler && msg.sender == MedicineBatchDetails[BatchID].wholesaler,\n            \"Only Wholesaler or current owner of package can call this function\"\n        );\n        MedicineWtoD[BatchID].batchid = BatchID;\n        MedicineWtoD[BatchID].shipper = Shipper;\n        MedicineWtoD[BatchID].receiver = Receiver;\n        MedicineWtoD[BatchID].status = packageStatus(0);\n        MedicineWtoD[BatchID].sender = msg.sender;\n        MedicineBatchDetails[BatchID].distributer = Receiver;\n        MedicineBatchDetails[BatchID].status = medicineStatus(2);\n        \n        emit MedicineTransportWtoD(BatchID, Shipper, Receiver, msg.sender);\n    }\n\n    function shipInfoWtoD(\n        bytes32 BatchID\n    ) public\n    view\n    returns(\n        address shipper,\n        address receiver,\n        uint status\n    ) {\n        return (\n            MedicineWtoD[BatchID].shipper,\n            MedicineWtoD[BatchID].receiver,\n            uint(MedicineWtoD[BatchID].status)\n        );\n    }\n\n    function getBatchIdCountW() public view returns(uint count){\n        require(\n            UsersDetails[msg.sender].role == roles.wholesaler,\n            \"Only Wholesaler or current owner of package can call this function\"\n        );\n        return  MedicineBatchAtWholesaler[msg.sender].length;\n    }\n\n    function getBatchIdByIndexW(uint index) public view returns(bytes32 BatchID){\n        require(\n            UsersDetails[msg.sender].role == roles.wholesaler,\n            \"Only Wholesaler or current owner of package can call this function\"\n        );\n        return MedicineBatchAtWholesaler[msg.sender][index];\n    }\n\n/********************************************** Distributer Section ***************************************/\n    mapping(address => bytes32[]) MedicineBatchAtDistributer;\n\n    event MedicineShipToPharma(\n        bytes32 indexed BatchID,\n        address indexed Shipper,\n        address indexed Receiver,\n        address Sender\n    );\n\n    struct Medicine_DtoR{\n        bytes32 batchid;\n        address shipper;\n        address receiver;\n        address sender;\n        packageStatus status;\n    }\n    mapping(bytes32 => Medicine_DtoR) MedicineDtoR;\n\n    function shipMedicineDtoP(\n        bytes32 BatchID,\n        address Shipper,\n        address Receiver\n    ) public \n    {\n        require(\n            UsersDetails[msg.sender].role == roles.distributer && msg.sender == MedicineBatchDetails[BatchID].distributer,\n            \"Only Distributer or current owner of package can call this function\"\n        );\n        MedicineDtoR[BatchID].batchid = BatchID;\n        MedicineDtoR[BatchID].shipper = Shipper;\n        MedicineDtoR[BatchID].receiver = Receiver;\n        MedicineDtoR[BatchID].status = packageStatus(0);\n        MedicineDtoR[BatchID].sender = msg.sender;\n        MedicineBatchDetails[BatchID].pharma = Receiver;\n        // MedicineBatchDetails[BatchID].status = medicineStatus(5);\n\n        emit MedicineShipToPharma(BatchID, Shipper, Receiver, msg.sender);\n    }\n\n    function shipInfoDtoP(\n        bytes32 BatchID\n    ) public\n    view\n    returns(\n        address shipper,\n        address receiver,\n        uint status\n    ) {\n        return (\n            MedicineDtoR[BatchID].shipper,\n            MedicineDtoR[BatchID].receiver,\n            uint(MedicineDtoR[BatchID].status)\n        );\n    }\n\n    function getBatchIdCountD() public view returns(uint count){\n        require(\n            UsersDetails[msg.sender].role == roles.distributer,\n            \"Only Wholesaler or current owner of package can call this function\"\n        );\n        return  MedicineBatchAtDistributer[msg.sender].length;\n    }\n\n    function getBatchIdByIndexD(uint index) public view returns(bytes32 BatchID){\n        require(\n            UsersDetails[msg.sender].role == roles.distributer,\n            \"Only Wholesaler or current owner of package can call this function\"\n        );\n        return MedicineBatchAtDistributer[msg.sender][index];\n    }\n/********************************************** Pharma Section ******************************************/\n    enum salestatus{ notfound, atpharma, sold, expire, damaged}\n    mapping(address => bytes32[]) MedicineBatchAtPharma;\n    mapping(bytes32 => salestatus) sale;\n\n    event MedicineReceiveAtPharma(\n        bytes32 indexed BatchID,\n        address indexed Shipper,\n        address indexed Sender,\n        address Receiver\n    );\n    event MedicineStatus(\n        bytes32 BatchID,\n        address indexed Pharma,\n        uint status\n    );\n\n    function receiveMedicineFormD(\n        bytes32 BatchID\n    ) public {\n        require(\n            UsersDetails[msg.sender].role == roles.pharma && msg.sender == MedicineBatchDetails[BatchID].pharma,\n            \"Only Pharma or current owner of package can call this function\"\n        );\n        MedicineDtoR[BatchID].status = packageStatus(2);\n        MedicineBatchDetails[BatchID].status = medicineStatus(6);\n        MedicineBatchAtPharma[msg.sender].push(BatchID);\n        sale[BatchID] = salestatus(1);\n\n        emit MedicineReceiveAtPharma(BatchID, MedicineDtoR[BatchID].shipper, MedicineDtoR[BatchID].sender, msg.sender);\n    }\n\n    function updateSaleStatus(\n        bytes32 BatchID,\n        uint Status\n    ) public {\n        require(\n            UsersDetails[msg.sender].role == roles.pharma && msg.sender == MedicineBatchDetails[BatchID].pharma,\n            \"Only Pharma or current owner of package can call this function\"\n        );\n        require(sale[BatchID] == salestatus(1), \"Medicine Must be at Pharma\");\n        sale[BatchID] = salestatus(Status);\n\n        emit MedicineStatus(BatchID, msg.sender, Status);\n    }\n\n    function salesInfo(\n        bytes32 BatchID\n    ) public \n    view\n    returns(\n        uint Status\n    ){\n        return uint(sale[BatchID]);\n    }\n\n    function getBatchIdCountP() public view returns(uint count){\n        require(\n            UsersDetails[msg.sender].role == roles.pharma,\n            \"Only Wholesaler or current owner of package can call this function\"\n        );\n        return  MedicineBatchAtPharma[msg.sender].length;\n    }\n\n    function getBatchIdByIndexP(uint index) public view returns(bytes32 BatchID){\n        require(\n            UsersDetails[msg.sender].role == roles.pharma,\n            \"Only Wholesaler or current owner of package can call this function\"\n        );\n        return MedicineBatchAtPharma[msg.sender][index];\n    }\n}",
  "sourcePath": "/home/celebal/personal/ethereum/Blockchain_SupplyChain/contracts/SupplyChain.sol",
  "compiler": {
    "name": "solc",
    "version": "0.5.1+commit.c8a2cb62.Emscripten.clang"
  },
  "schemaVersion": "3.0.0",
  "updatedAt": "2019-01-18T12:49:13.796Z",
  "devdoc": {
    "methods": {}
  },
  "userdoc": {
    "methods": {}
  }
}